{"abi":[{"type":"constructor","inputs":[{"name":"_addresslist","type":"address","internalType":"contract Addresslist"}],"stateMutability":"nonpayable"},{"type":"function","name":"accountList","inputs":[{"name":"","type":"uint256","internalType":"uint256"}],"outputs":[{"name":"","type":"address","internalType":"address"}],"stateMutability":"view"},{"type":"function","name":"accounts","inputs":[{"name":"","type":"address","internalType":"address"}],"outputs":[{"name":"appointedAgent","type":"address","internalType":"address"},{"name":"publicKey","type":"bytes32","internalType":"bytes32"}],"stateMutability":"view"},{"type":"function","name":"appointAgent","inputs":[{"name":"_newAgent","type":"address","internalType":"address"}],"outputs":[],"stateMutability":"nonpayable"},{"type":"function","name":"appointerOf","inputs":[{"name":"","type":"address","internalType":"address"}],"outputs":[{"name":"","type":"address","internalType":"address"}],"stateMutability":"view"},{"type":"function","name":"getAppointedAgent","inputs":[{"name":"_account","type":"address","internalType":"address"}],"outputs":[{"name":"","type":"address","internalType":"address"}],"stateMutability":"view"},{"type":"function","name":"getRegisteredAccounts","inputs":[],"outputs":[{"name":"","type":"address[]","internalType":"address[]"}],"stateMutability":"view"},{"type":"function","name":"removeUnused","inputs":[],"outputs":[],"stateMutability":"nonpayable"},{"type":"function","name":"setOwnPublicKey","inputs":[{"name":"_publicKey","type":"bytes32","internalType":"bytes32"}],"outputs":[],"stateMutability":"nonpayable"},{"type":"function","name":"setPublicKey","inputs":[{"name":"_accountOwner","type":"address","internalType":"address"},{"name":"_publicKey","type":"bytes32","internalType":"bytes32"}],"outputs":[],"stateMutability":"nonpayable"},{"type":"function","name":"supportsInterface","inputs":[{"name":"_interfaceId","type":"bytes4","internalType":"bytes4"}],"outputs":[{"name":"","type":"bool","internalType":"bool"}],"stateMutability":"view"},{"type":"event","name":"AgentAppointed","inputs":[{"name":"account","type":"address","indexed":false,"internalType":"address"},{"name":"agent","type":"address","indexed":false,"internalType":"address"}],"anonymous":false},{"type":"event","name":"PublicKeySet","inputs":[{"name":"account","type":"address","indexed":false,"internalType":"address"},{"name":"publicKey","type":"bytes32","indexed":false,"internalType":"bytes32"}],"anonymous":false},{"type":"error","name":"AlreadyAppointed","inputs":[]},{"type":"error","name":"AlreadyListed","inputs":[]},{"type":"error","name":"CannotAppointContracts","inputs":[]},{"type":"error","name":"InvalidAddressList","inputs":[]},{"type":"error","name":"MustBeAppointed","inputs":[]},{"type":"error","name":"MustBeListed","inputs":[]},{"type":"error","name":"MustResetAppointedAgent","inputs":[]}],"bytecode":{"object":"0x608060405234801561001057600080fd5b50604051610d93380380610d9383398101604081905261002f916100e0565b6040516301ffc9a760e01b8152630bb5c60360e01b60048201526001600160a01b038216906301ffc9a790602401602060405180830381865afa15801561007a573d6000803e3d6000fd5b505050506040513d601f19601f8201168201806040525081019061009e9190610110565b6100bb5760405163016f182360e21b815260040160405180910390fd5b600380546001600160a01b0319166001600160a01b0392909216919091179055610132565b6000602082840312156100f257600080fd5b81516001600160a01b038116811461010957600080fd5b9392505050565b60006020828403121561012257600080fd5b8151801515811461010957600080fd5b610c52806101416000396000f3fe608060405234801561001057600080fd5b506004361061009e5760003560e01c8063391b7d3e11610066578063391b7d3e1461010e5780634ea98d16146101395780635e5c06e21461014c5780638dda93e31461019e578063e5e9c127146101b357600080fd5b806301ffc9a7146100a3578063095052f0146100cb57806313233cd9146100e05780633307fd1e146100f35780633348803f14610106575b600080fd5b6100b66100b1366004610ab5565b6101dc565b60405190151581526020015b60405180910390f35b6100de6100d9366004610b02565b610213565b005b6100de6100ee366004610b2c565b610329565b6100de610101366004610b47565b610690565b6100de6107bb565b61012161011c366004610b2c565b61091e565b6040516001600160a01b0390911681526020016100c2565b610121610147366004610b47565b610963565b61017f61015a366004610b2c565b600160208190526000918252604090912080549101546001600160a01b039091169082565b604080516001600160a01b0390931683526020830191909152016100c2565b6101a661098d565b6040516100c29190610b60565b6101216101c1366004610b2c565b6002602052600090815260409020546001600160a01b031681565b60006001600160e01b031982166336f531db60e01b148061020d57506301ffc9a760e01b6001600160e01b03198316145b92915050565b600354604051637bca031760e11b81526001600160a01b0384811660048301529091169063f794062e90602401602060405180830381865afa15801561025d573d6000803e3d6000fd5b505050506040513d601f19601f820116820180604052508101906102819190610bad565b61029e57604051635214b75960e11b815260040160405180910390fd5b6001600160a01b038281166000908152600160205260409020541633146102d857604051633abfd89b60e11b815260040160405180910390fd5b6102e282826109ef565b604080516001600160a01b0384168152602081018390527f2f8b8e2b1137df4bd139da157e7097793ec5b4fb836c7ae1bf68b511144a379191015b60405180910390a15050565b336001600160a01b0382160361033d575060005b600354604051637bca031760e11b81523360048201526001600160a01b039091169063f794062e90602401602060405180830381865afa158015610385573d6000803e3d6000fd5b505050506040513d601f19601f820116820180604052508101906103a99190610bad565b6103c657604051635214b75960e11b815260040160405180910390fd5b6001600160a01b0381163b156103ef5760405163765be84160e01b815260040160405180910390fd5b600354604051637bca031760e11b81526001600160a01b0383811660048301529091169063f794062e90602401602060405180830381865afa158015610439573d6000803e3d6000fd5b505050506040513d601f19601f8201168201806040525081019061045d9190610bad565b1561047b576040516328f560bb60e21b815260040160405180910390fd5b336000908152600160205260409020546001600160a01b03908116908216036104a15750565b6001600160a01b0381811660009081526002602052604090205416156104da57604051631a540fdf60e31b815260040160405180910390fd5b6000805b60005481101561053057336001600160a01b03166000828154811061050557610505610bcf565b6000918252602090912001546001600160a01b0316036105285760019150610530565b6001016104de565b508061057a57600080546001810182559080527f290decd9548b62a8d60345a988386fc84ba6bc95484008f6362f93160ef3e5630180546001600160a01b031916331790556105f9565b336000908152600160205260409020546001600160a01b0316156105cc57336000908152600160209081526040808320546001600160a01b031683526002909152902080546001600160a01b03191690555b3360009081526001602081905260409091200154156105f957336000908152600160208190526040822001555b33600090815260016020526040902080546001600160a01b0319166001600160a01b03841690811790915515610652576001600160a01b038216600090815260026020526040902080546001600160a01b031916331790555b604080513381526001600160a01b03841660208201527fd54f867330e471a7ee6741be856f1bf5587996781f2eb1281023bdf0c24e5f71910161031d565b600354604051637bca031760e11b81523360048201526001600160a01b039091169063f794062e90602401602060405180830381865afa1580156106d8573d6000803e3d6000fd5b505050506040513d601f19601f820116820180604052508101906106fc9190610bad565b61071957604051635214b75960e11b815260040160405180910390fd5b336000908152600160205260409020546001600160a01b0316158015906107575750336000818152600160205260409020546001600160a01b031614155b1561077557604051630243c6f760e41b815260040160405180910390fd5b61077f33826109ef565b60408051338152602081018390527f2f8b8e2b1137df4bd139da157e7097793ec5b4fb836c7ae1bf68b511144a3791910160405180910390a150565b60005b60005481101561091b57600354600080546001600160a01b039092169163f794062e9190849081106107f2576107f2610bcf565b60009182526020909120015460405160e083901b6001600160e01b03191681526001600160a01b039091166004820152602401602060405180830381865afa158015610842573d6000803e3d6000fd5b505050506040513d601f19601f820116820180604052508101906108669190610bad565b610913576000805461087a90600190610be5565b8154811061088a5761088a610bcf565b600091825260208220015481546001600160a01b039091169190839081106108b4576108b4610bcf565b6000918252602082200180546001600160a01b0319166001600160a01b0393909316929092179091558054806108ec576108ec610c06565b600082815260209020810160001990810180546001600160a01b03191690550190556107be565b6001016107be565b50565b6001600160a01b038181166000908152600160205260408120549091161561095f57506001600160a01b039081166000908152600160205260409020541690565b5090565b6000818154811061097357600080fd5b6000918252602090912001546001600160a01b0316905081565b606060008054806020026020016040519081016040528092919081815260200182805480156109e557602002820191906000526020600020905b81546001600160a01b031681526001909101906020018083116109c7575b5050505050905090565b6000805b600054811015610a4557836001600160a01b031660008281548110610a1a57610a1a610bcf565b6000918252602090912001546001600160a01b031603610a3d5760019150610a45565b6001016109f3565b5080610a9457600080546001810182559080527f290decd9548b62a8d60345a988386fc84ba6bc95484008f6362f93160ef3e5630180546001600160a01b0319166001600160a01b0385161790555b506001600160a01b0390911660009081526001602081905260409091200155565b600060208284031215610ac757600080fd5b81356001600160e01b031981168114610adf57600080fd5b9392505050565b80356001600160a01b0381168114610afd57600080fd5b919050565b60008060408385031215610b1557600080fd5b610b1e83610ae6565b946020939093013593505050565b600060208284031215610b3e57600080fd5b610adf82610ae6565b600060208284031215610b5957600080fd5b5035919050565b6020808252825182820181905260009190848201906040850190845b81811015610ba15783516001600160a01b031683529284019291840191600101610b7c565b50909695505050505050565b600060208284031215610bbf57600080fd5b81518015158114610adf57600080fd5b634e487b7160e01b600052603260045260246000fd5b8181038181111561020d57634e487b7160e01b600052601160045260246000fd5b634e487b7160e01b600052603160045260246000fdfea264697066735822122009bfaf916d42b69ab24f58bc33fce025db060713dda11e29d1c447e67fb74e2664736f6c63430008110033","linkReferences":{}},"methodIdentifiers":{"accountList(uint256)":"4ea98d16","accounts(address)":"5e5c06e2","appointAgent(address)":"13233cd9","appointerOf(address)":"e5e9c127","getAppointedAgent(address)":"391b7d3e","getRegisteredAccounts()":"8dda93e3","removeUnused()":"3348803f","setOwnPublicKey(bytes32)":"3307fd1e","setPublicKey(address,bytes32)":"095052f0","supportsInterface(bytes4)":"01ffc9a7"},"id":155}