{
  "abi": [
    {
      "type": "function",
      "name": "candidateAddresses",
      "inputs": [
        {
          "name": "",
          "type": "uint256",
          "internalType": "uint256"
        }
      ],
      "outputs": [
        {
          "name": "",
          "type": "address",
          "internalType": "address"
        }
      ],
      "stateMutability": "view"
    },
    {
      "type": "function",
      "name": "candidateCount",
      "inputs": [],
      "outputs": [
        {
          "name": "",
          "type": "uint256",
          "internalType": "uint256"
        }
      ],
      "stateMutability": "view"
    },
    {
      "type": "function",
      "name": "candidates",
      "inputs": [
        {
          "name": "",
          "type": "address",
          "internalType": "address"
        }
      ],
      "outputs": [
        {
          "name": "contentUrl",
          "type": "bytes",
          "internalType": "bytes"
        }
      ],
      "stateMutability": "view"
    },
    {
      "type": "function",
      "name": "getCandidateAddresses",
      "inputs": [],
      "outputs": [
        {
          "name": "",
          "type": "address[]",
          "internalType": "address[]"
        }
      ],
      "stateMutability": "view"
    },
    {
      "type": "function",
      "name": "register",
      "inputs": [
        {
          "name": "_contentUrl",
          "type": "bytes",
          "internalType": "bytes"
        }
      ],
      "outputs": [],
      "stateMutability": "nonpayable"
    },
    {
      "type": "event",
      "name": "CandidateRegistered",
      "inputs": [
        {
          "name": "candidate",
          "type": "address",
          "indexed": true,
          "internalType": "address"
        },
        {
          "name": "contentUrl",
          "type": "bytes",
          "indexed": false,
          "internalType": "bytes"
        }
      ],
      "anonymous": false
    },
    {
      "type": "error",
      "name": "EmptyContent",
      "inputs": []
    }
  ],
  "bytecode": {
    "object": "0x608060405234801561001057600080fd5b50610624806100206000396000f3fe608060405234801561001057600080fd5b50600436106100575760003560e01c80638155f7361461005c57806382fbdc9c1461007a5780638ab66a901461008f578063a9a981a3146100af578063d55d73c5146100c0575b600080fd5b6100646100eb565b60405161007191906102fa565b60405180910390f35b61008d61008836600461035d565b61014d565b005b6100a261009d36600461040e565b610232565b604051610071919061043e565b600154604051908152602001610071565b6100d36100ce36600461048c565b6102d0565b6040516001600160a01b039091168152602001610071565b6060600180548060200260200160405190810160405280929190818152602001828054801561014357602002820191906000526020600020905b81546001600160a01b03168152600190910190602001808311610125575b5050505050905090565b805160000361016f57604051633459b81b60e11b815260040160405180910390fd5b3360009081526020819052604090208054610189906104a5565b90506000036101d4576001805480820182556000919091527fb10e2d527612073b26eecdfd717e6a320cf44b4afac2b0732d9fcbe2b7fa0cf60180546001600160a01b031916331790555b3360009081526020819052604090206101ed828261052e565b50336001600160a01b03167fac432ffec471edca7e4cf19357a00ca27e0175c6d276b7d6cd51cfe46a2216be82604051610227919061043e565b60405180910390a250565b60006020819052908152604090208054819061024d906104a5565b80601f0160208091040260200160405190810160405280929190818152602001828054610279906104a5565b80156102c65780601f1061029b576101008083540402835291602001916102c6565b820191906000526020600020905b8154815290600101906020018083116102a957829003601f168201915b5050505050905081565b600181815481106102e057600080fd5b6000918252602090912001546001600160a01b0316905081565b6020808252825182820181905260009190848201906040850190845b8181101561033b5783516001600160a01b031683529284019291840191600101610316565b50909695505050505050565b634e487b7160e01b600052604160045260246000fd5b60006020828403121561036f57600080fd5b813567ffffffffffffffff8082111561038757600080fd5b818401915084601f83011261039b57600080fd5b8135818111156103ad576103ad610347565b604051601f8201601f19908116603f011681019083821181831017156103d5576103d5610347565b816040528281528760208487010111156103ee57600080fd5b826020860160208301376000928101602001929092525095945050505050565b60006020828403121561042057600080fd5b81356001600160a01b038116811461043757600080fd5b9392505050565b600060208083528351808285015260005b8181101561046b5785810183015185820160400152820161044f565b506000604082860101526040601f19601f8301168501019250505092915050565b60006020828403121561049e57600080fd5b5035919050565b600181811c908216806104b957607f821691505b6020821081036104d957634e487b7160e01b600052602260045260246000fd5b50919050565b601f82111561052957600081815260208120601f850160051c810160208610156105065750805b601f850160051c820191505b8181101561052557828155600101610512565b5050505b505050565b815167ffffffffffffffff81111561054857610548610347565b61055c8161055684546104a5565b846104df565b602080601f83116001811461059157600084156105795750858301515b600019600386901b1c1916600185901b178555610525565b600085815260208120601f198616915b828110156105c0578886015182559484019460019091019084016105a1565b50858210156105de5787850151600019600388901b60f8161c191681555b5050505050600190811b0190555056fea26469706673582212200dfd4cc4a079a4ad8883c47a7c69fc79b3a94629382707f31250d030442a8f5864736f6c63430008110033",
    "linkReferences": {}
  },
  "methodIdentifiers": {
    "candidateAddresses(uint256)": "d55d73c5",
    "candidateCount()": "a9a981a3",
    "candidates(address)": "8ab66a90",
    "getCandidateAddresses()": "8155f736",
    "register(bytes)": "82fbdc9c"
  },
  "id": 153
}