{
  "abi": [
    {
      "type": "constructor",
      "inputs": [],
      "stateMutability": "nonpayable"
    },
    {
      "type": "function",
      "name": "UPDATE_MULTISIG_SETTINGS_PERMISSION_ID",
      "inputs": [],
      "outputs": [
        {
          "name": "",
          "type": "bytes32",
          "internalType": "bytes32"
        }
      ],
      "stateMutability": "view"
    },
    {
      "type": "function",
      "name": "UPGRADE_PLUGIN_PERMISSION_ID",
      "inputs": [],
      "outputs": [
        {
          "name": "",
          "type": "bytes32",
          "internalType": "bytes32"
        }
      ],
      "stateMutability": "view"
    },
    {
      "type": "function",
      "name": "approve",
      "inputs": [
        {
          "name": "_proposalId",
          "type": "uint256",
          "internalType": "uint256"
        },
        {
          "name": "_tryExecution",
          "type": "bool",
          "internalType": "bool"
        }
      ],
      "outputs": [],
      "stateMutability": "nonpayable"
    },
    {
      "type": "function",
      "name": "canApprove",
      "inputs": [
        {
          "name": "_proposalId",
          "type": "uint256",
          "internalType": "uint256"
        },
        {
          "name": "_account",
          "type": "address",
          "internalType": "address"
        }
      ],
      "outputs": [
        {
          "name": "",
          "type": "bool",
          "internalType": "bool"
        }
      ],
      "stateMutability": "view"
    },
    {
      "type": "function",
      "name": "canExecute",
      "inputs": [
        {
          "name": "_proposalId",
          "type": "uint256",
          "internalType": "uint256"
        }
      ],
      "outputs": [
        {
          "name": "",
          "type": "bool",
          "internalType": "bool"
        }
      ],
      "stateMutability": "view"
    },
    {
      "type": "function",
      "name": "createProposal",
      "inputs": [
        {
          "name": "_metadataURI",
          "type": "bytes",
          "internalType": "bytes"
        },
        {
          "name": "_destinationActions",
          "type": "tuple[]",
          "internalType": "struct IDAO.Action[]",
          "components": [
            {
              "name": "to",
              "type": "address",
              "internalType": "address"
            },
            {
              "name": "value",
              "type": "uint256",
              "internalType": "uint256"
            },
            {
              "name": "data",
              "type": "bytes",
              "internalType": "bytes"
            }
          ]
        },
        {
          "name": "_destinationPlugin",
          "type": "address",
          "internalType": "contract OptimisticTokenVotingPlugin"
        },
        {
          "name": "_approveProposal",
          "type": "bool",
          "internalType": "bool"
        }
      ],
      "outputs": [
        {
          "name": "proposalId",
          "type": "uint256",
          "internalType": "uint256"
        }
      ],
      "stateMutability": "nonpayable"
    },
    {
      "type": "function",
      "name": "dao",
      "inputs": [],
      "outputs": [
        {
          "name": "",
          "type": "address",
          "internalType": "contract IDAO"
        }
      ],
      "stateMutability": "view"
    },
    {
      "type": "function",
      "name": "execute",
      "inputs": [
        {
          "name": "_proposalId",
          "type": "uint256",
          "internalType": "uint256"
        }
      ],
      "outputs": [],
      "stateMutability": "nonpayable"
    },
    {
      "type": "function",
      "name": "getProposal",
      "inputs": [
        {
          "name": "_proposalId",
          "type": "uint256",
          "internalType": "uint256"
        }
      ],
      "outputs": [
        {
          "name": "executed",
          "type": "bool",
          "internalType": "bool"
        },
        {
          "name": "approvals",
          "type": "uint16",
          "internalType": "uint16"
        },
        {
          "name": "parameters",
          "type": "tuple",
          "internalType": "struct Multisig.ProposalParameters",
          "components": [
            {
              "name": "minApprovals",
              "type": "uint16",
              "internalType": "uint16"
            },
            {
              "name": "snapshotBlock",
              "type": "uint64",
              "internalType": "uint64"
            },
            {
              "name": "expirationDate",
              "type": "uint64",
              "internalType": "uint64"
            }
          ]
        },
        {
          "name": "metadataURI",
          "type": "bytes",
          "internalType": "bytes"
        },
        {
          "name": "destinationActions",
          "type": "tuple[]",
          "internalType": "struct IDAO.Action[]",
          "components": [
            {
              "name": "to",
              "type": "address",
              "internalType": "address"
            },
            {
              "name": "value",
              "type": "uint256",
              "internalType": "uint256"
            },
            {
              "name": "data",
              "type": "bytes",
              "internalType": "bytes"
            }
          ]
        },
        {
          "name": "destinationPlugin",
          "type": "address",
          "internalType": "contract OptimisticTokenVotingPlugin"
        }
      ],
      "stateMutability": "view"
    },
    {
      "type": "function",
      "name": "hasApproved",
      "inputs": [
        {
          "name": "_proposalId",
          "type": "uint256",
          "internalType": "uint256"
        },
        {
          "name": "_account",
          "type": "address",
          "internalType": "address"
        }
      ],
      "outputs": [
        {
          "name": "",
          "type": "bool",
          "internalType": "bool"
        }
      ],
      "stateMutability": "view"
    },
    {
      "type": "function",
      "name": "implementation",
      "inputs": [],
      "outputs": [
        {
          "name": "",
          "type": "address",
          "internalType": "address"
        }
      ],
      "stateMutability": "view"
    },
    {
      "type": "function",
      "name": "initialize",
      "inputs": [
        {
          "name": "_dao",
          "type": "address",
          "internalType": "contract IDAO"
        },
        {
          "name": "_multisigSettings",
          "type": "tuple",
          "internalType": "struct Multisig.MultisigSettings",
          "components": [
            {
              "name": "onlyListed",
              "type": "bool",
              "internalType": "bool"
            },
            {
              "name": "minApprovals",
              "type": "uint16",
              "internalType": "uint16"
            },
            {
              "name": "destinationProposalDuration",
              "type": "uint32",
              "internalType": "uint32"
            },
            {
              "name": "signerList",
              "type": "address",
              "internalType": "contract SignerList"
            },
            {
              "name": "proposalExpirationPeriod",
              "type": "uint32",
              "internalType": "uint32"
            }
          ]
        }
      ],
      "outputs": [],
      "stateMutability": "nonpayable"
    },
    {
      "type": "function",
      "name": "lastMultisigSettingsChange",
      "inputs": [],
      "outputs": [
        {
          "name": "",
          "type": "uint64",
          "internalType": "uint64"
        }
      ],
      "stateMutability": "view"
    },
    {
      "type": "function",
      "name": "multisigSettings",
      "inputs": [],
      "outputs": [
        {
          "name": "onlyListed",
          "type": "bool",
          "internalType": "bool"
        },
        {
          "name": "minApprovals",
          "type": "uint16",
          "internalType": "uint16"
        },
        {
          "name": "destinationProposalDuration",
          "type": "uint32",
          "internalType": "uint32"
        },
        {
          "name": "signerList",
          "type": "address",
          "internalType": "contract SignerList"
        },
        {
          "name": "proposalExpirationPeriod",
          "type": "uint32",
          "internalType": "uint32"
        }
      ],
      "stateMutability": "view"
    },
    {
      "type": "function",
      "name": "pluginType",
      "inputs": [],
      "outputs": [
        {
          "name": "",
          "type": "uint8",
          "internalType": "enum IPlugin.PluginType"
        }
      ],
      "stateMutability": "pure"
    },
    {
      "type": "function",
      "name": "proposalCount",
      "inputs": [],
      "outputs": [
        {
          "name": "",
          "type": "uint256",
          "internalType": "uint256"
        }
      ],
      "stateMutability": "view"
    },
    {
      "type": "function",
      "name": "proxiableUUID",
      "inputs": [],
      "outputs": [
        {
          "name": "",
          "type": "bytes32",
          "internalType": "bytes32"
        }
      ],
      "stateMutability": "view"
    },
    {
      "type": "function",
      "name": "supportsInterface",
      "inputs": [
        {
          "name": "_interfaceId",
          "type": "bytes4",
          "internalType": "bytes4"
        }
      ],
      "outputs": [
        {
          "name": "",
          "type": "bool",
          "internalType": "bool"
        }
      ],
      "stateMutability": "view"
    },
    {
      "type": "function",
      "name": "updateMultisigSettings",
      "inputs": [
        {
          "name": "_multisigSettings",
          "type": "tuple",
          "internalType": "struct Multisig.MultisigSettings",
          "components": [
            {
              "name": "onlyListed",
              "type": "bool",
              "internalType": "bool"
            },
            {
              "name": "minApprovals",
              "type": "uint16",
              "internalType": "uint16"
            },
            {
              "name": "destinationProposalDuration",
              "type": "uint32",
              "internalType": "uint32"
            },
            {
              "name": "signerList",
              "type": "address",
              "internalType": "contract SignerList"
            },
            {
              "name": "proposalExpirationPeriod",
              "type": "uint32",
              "internalType": "uint32"
            }
          ]
        }
      ],
      "outputs": [],
      "stateMutability": "nonpayable"
    },
    {
      "type": "function",
      "name": "upgradeTo",
      "inputs": [
        {
          "name": "newImplementation",
          "type": "address",
          "internalType": "address"
        }
      ],
      "outputs": [],
      "stateMutability": "nonpayable"
    },
    {
      "type": "function",
      "name": "upgradeToAndCall",
      "inputs": [
        {
          "name": "newImplementation",
          "type": "address",
          "internalType": "address"
        },
        {
          "name": "data",
          "type": "bytes",
          "internalType": "bytes"
        }
      ],
      "outputs": [],
      "stateMutability": "payable"
    },
    {
      "type": "event",
      "name": "AdminChanged",
      "inputs": [
        {
          "name": "previousAdmin",
          "type": "address",
          "indexed": false,
          "internalType": "address"
        },
        {
          "name": "newAdmin",
          "type": "address",
          "indexed": false,
          "internalType": "address"
        }
      ],
      "anonymous": false
    },
    {
      "type": "event",
      "name": "Approved",
      "inputs": [
        {
          "name": "proposalId",
          "type": "uint256",
          "indexed": true,
          "internalType": "uint256"
        },
        {
          "name": "approver",
          "type": "address",
          "indexed": true,
          "internalType": "address"
        }
      ],
      "anonymous": false
    },
    {
      "type": "event",
      "name": "BeaconUpgraded",
      "inputs": [
        {
          "name": "beacon",
          "type": "address",
          "indexed": true,
          "internalType": "address"
        }
      ],
      "anonymous": false
    },
    {
      "type": "event",
      "name": "Executed",
      "inputs": [
        {
          "name": "proposalId",
          "type": "uint256",
          "indexed": true,
          "internalType": "uint256"
        }
      ],
      "anonymous": false
    },
    {
      "type": "event",
      "name": "Initialized",
      "inputs": [
        {
          "name": "version",
          "type": "uint8",
          "indexed": false,
          "internalType": "uint8"
        }
      ],
      "anonymous": false
    },
    {
      "type": "event",
      "name": "MultisigSettingsUpdated",
      "inputs": [
        {
          "name": "onlyListed",
          "type": "bool",
          "indexed": false,
          "internalType": "bool"
        },
        {
          "name": "minApprovals",
          "type": "uint16",
          "indexed": true,
          "internalType": "uint16"
        },
        {
          "name": "destinationProposalDuration",
          "type": "uint32",
          "indexed": false,
          "internalType": "uint32"
        },
        {
          "name": "signerList",
          "type": "address",
          "indexed": false,
          "internalType": "contract SignerList"
        },
        {
          "name": "proposalExpirationPeriod",
          "type": "uint32",
          "indexed": false,
          "internalType": "uint32"
        }
      ],
      "anonymous": false
    },
    {
      "type": "event",
      "name": "ProposalCreated",
      "inputs": [
        {
          "name": "proposalId",
          "type": "uint256",
          "indexed": true,
          "internalType": "uint256"
        },
        {
          "name": "creator",
          "type": "address",
          "indexed": true,
          "internalType": "address"
        },
        {
          "name": "startDate",
          "type": "uint64",
          "indexed": false,
          "internalType": "uint64"
        },
        {
          "name": "endDate",
          "type": "uint64",
          "indexed": false,
          "internalType": "uint64"
        },
        {
          "name": "metadata",
          "type": "bytes",
          "indexed": false,
          "internalType": "bytes"
        },
        {
          "name": "actions",
          "type": "tuple[]",
          "indexed": false,
          "internalType": "struct IDAO.Action[]",
          "components": [
            {
              "name": "to",
              "type": "address",
              "internalType": "address"
            },
            {
              "name": "value",
              "type": "uint256",
              "internalType": "uint256"
            },
            {
              "name": "data",
              "type": "bytes",
              "internalType": "bytes"
            }
          ]
        },
        {
          "name": "allowFailureMap",
          "type": "uint256",
          "indexed": false,
          "internalType": "uint256"
        }
      ],
      "anonymous": false
    },
    {
      "type": "event",
      "name": "ProposalExecuted",
      "inputs": [
        {
          "name": "proposalId",
          "type": "uint256",
          "indexed": true,
          "internalType": "uint256"
        }
      ],
      "anonymous": false
    },
    {
      "type": "event",
      "name": "Upgraded",
      "inputs": [
        {
          "name": "implementation",
          "type": "address",
          "indexed": true,
          "internalType": "address"
        }
      ],
      "anonymous": false
    },
    {
      "type": "error",
      "name": "ApprovalCastForbidden",
      "inputs": [
        {
          "name": "proposalId",
          "type": "uint256",
          "internalType": "uint256"
        },
        {
          "name": "sender",
          "type": "address",
          "internalType": "address"
        }
      ]
    },
    {
      "type": "error",
      "name": "DaoUnauthorized",
      "inputs": [
        {
          "name": "dao",
          "type": "address",
          "internalType": "address"
        },
        {
          "name": "where",
          "type": "address",
          "internalType": "address"
        },
        {
          "name": "who",
          "type": "address",
          "internalType": "address"
        },
        {
          "name": "permissionId",
          "type": "bytes32",
          "internalType": "bytes32"
        }
      ]
    },
    {
      "type": "error",
      "name": "InvalidSignerList",
      "inputs": [
        {
          "name": "signerList",
          "type": "address",
          "internalType": "contract SignerList"
        }
      ]
    },
    {
      "type": "error",
      "name": "MinApprovalsOutOfBounds",
      "inputs": [
        {
          "name": "limit",
          "type": "uint16",
          "internalType": "uint16"
        },
        {
          "name": "actual",
          "type": "uint16",
          "internalType": "uint16"
        }
      ]
    },
    {
      "type": "error",
      "name": "ProposalCreationForbidden",
      "inputs": [
        {
          "name": "sender",
          "type": "address",
          "internalType": "address"
        }
      ]
    },
    {
      "type": "error",
      "name": "ProposalExecutionForbidden",
      "inputs": [
        {
          "name": "proposalId",
          "type": "uint256",
          "internalType": "uint256"
        }
      ]
    }
  ],
  "bytecode": {
    "object": "0x60a0604052306080523480156200001557600080fd5b506200002062000030565b6200002a62000030565b620000f1565b600054610100900460ff16156200009d5760405162461bcd60e51b815260206004820152602760248201527f496e697469616c697a61626c653a20636f6e747261637420697320696e697469604482015266616c697a696e6760c81b606482015260840160405180910390fd5b60005460ff90811614620000ef576000805460ff191660ff9081179091556040519081527f7f26b83ff96e1f2b6a682f133852f6798a09c465da95921460cefb38474024989060200160405180910390a15b565b60805161293462000129600039600081816109440152818161098401528181610a0c01528181610a4c0152610ac801526129346000f3fe60806040526004361061012a5760003560e01c806352d1902d116100ab578063c9c4bfca1161006f578063c9c4bfca1461035e578063cc63604a14610392578063cf94a86d146103b2578063da35c664146103d2578063e097b3ff146103e7578063fe0d94c11461047657600080fd5b806352d1902d146102a95780635c60da1b146102be578063747442d3146102d3578063bc208302146102f3578063c7f758a81461032c57600080fd5b80632caf024b116100f25780632caf024b146101f45780633659cfe6146102285780634162169f1461024857806341de68301461027a5780634f1ef2861461029657600080fd5b806301ffc9a71461012f5780632358d5a81461016457806326d901db1461018457806329245f56146101b257806329715fc3146101d2575b600080fd5b34801561013b57600080fd5b5061014f61014a366004611b9d565b610496565b60405190151581526020015b60405180910390f35b34801561017057600080fd5b5061014f61017f366004611bdc565b6104dc565b34801561019057600080fd5b506101a461019f366004611c80565b6105b3565b60405190815260200161015b565b3480156101be57600080fd5b5061014f6101cd366004611bdc565b61080a565b3480156101de57600080fd5b506101f26101ed366004611d52565b61081d565b005b34801561020057600080fd5b506101a47fb1750e46d35a0069c8465b8643e7838d2149a842a2db8ee233d9835590040cad81565b34801561023457600080fd5b506101f2610243366004611d88565b61093a565b34801561025457600080fd5b5060c9546001600160a01b03165b6040516001600160a01b03909116815260200161015b565b34801561028657600080fd5b50600060405161015b9190611da5565b6101f26102a4366004611de3565b610a02565b3480156102b557600080fd5b506101a4610abb565b3480156102ca57600080fd5b50610262610b6f565b3480156102df57600080fd5b506101f26102ee366004611ea6565b610b7e565b3480156102ff57600080fd5b5061016154610314906001600160401b031681565b6040516001600160401b03909116815260200161015b565b34801561033857600080fd5b5061034c610347366004611ecb565b610cf0565b60405161015b96959493929190611f34565b34801561036a57600080fd5b506101a47f821b6e3a557148015a918c89e5d092e878a69854a2d1a410635f771bd5a8a3f581565b34801561039e57600080fd5b5061014f6103ad366004611ecb565b610f2c565b3480156103be57600080fd5b506101f26103cd366004612027565b610f37565b3480156103de57600080fd5b506101a4610f7e565b3480156103f357600080fd5b50610160546104379060ff81169061ffff6101008204169063ffffffff630100000082048116916001600160a01b03600160381b82041691600160d81b9091041685565b60408051951515865261ffff909416602086015263ffffffff928316938501939093526001600160a01b0316606084015216608082015260a00161015b565b34801561048257600080fd5b506101f2610491366004611ecb565b610f8a565b60006001600160e01b031982166326331e5360e11b14806104c757506001600160e01b0319821663288c314960e21b145b806104d657506104d682610fbc565b92915050565b600082815261015f60205260408082206101605460018201549251632568243b60e11b81526001600160a01b038681166004830152620100009094046001600160401b0316602482015291928492600160381b9092041690634ad0487690604401602060405180830381865afa15801561055a573d6000803e3d6000fd5b505050506040513d601f19601f8201168201806040525081019061057e9190612043565b600086815261015f602090815260408083206001600160a01b03909416835260029093019052205460ff169250505092915050565b6101605460009060ff161561066057610160546040516313b5f72960e01b8152336004820152600091600160381b90046001600160a01b0316906313b5f72990602401602060405180830381865afa158015610613573d6000803e3d6000fd5b505050506040513d601f19601f820116820180604052508101906106379190612060565b90508061065e57604051633aae64d160e21b81523360048201526024015b60405180910390fd5b505b6000600161066d43610fe1565b6101615491900391506001600160401b03808316911611156106a457604051633aae64d160e21b8152336004820152602401610655565b61016054600090600160d81b900463ffffffff166106c142610fe1565b6106cb919061207d565b90506106e6338a8a6106dc42610fe1565b858c8c600061104d565b600081815261015f60205260409020909350600381016107078a8c8361212c565b506005810180546001600160a01b0319166001600160a01b03881617905560018101805471ffffffffffffffffffffffffffffffff00001916620100006001600160401b038681169190910267ffffffffffffffff60501b191691909117600160501b918516919091021780825561016054610100900461ffff1661ffff1990911617905560005b878110156107eb57816004018989838181106107ad576107ad6121eb565b90506020028101906107bf9190612201565b8154600181018355600092835260209092209091600302016107e18282612221565b505060010161078f565b5084156107fd576107fd846000610b7e565b5050509695505050505050565b600061081683836110b3565b9392505050565b600054610100900460ff161580801561083d5750600054600160ff909116105b806108575750303b158015610857575060005460ff166001145b6108ba5760405162461bcd60e51b815260206004820152602e60248201527f496e697469616c697a61626c653a20636f6e747261637420697320616c72656160448201526d191e481a5b9a5d1a585b1a5e995960921b6064820152608401610655565b6000805460ff1916600117905580156108dd576000805461ff0019166101001790555b6108e6836111ff565b6108ef8261122f565b8015610935576000805461ff0019169055604051600181527f7f26b83ff96e1f2b6a682f133852f6798a09c465da95921460cefb38474024989060200160405180910390a15b505050565b6001600160a01b037f00000000000000000000000000000000000000000000000000000000000000001630036109825760405162461bcd60e51b81526004016106559061234a565b7f00000000000000000000000000000000000000000000000000000000000000006001600160a01b03166109b46114cd565b6001600160a01b0316146109da5760405162461bcd60e51b815260040161065590612396565b6109e3816114e9565b604080516000808252602082019092526109ff91839190611522565b50565b6001600160a01b037f0000000000000000000000000000000000000000000000000000000000000000163003610a4a5760405162461bcd60e51b81526004016106559061234a565b7f00000000000000000000000000000000000000000000000000000000000000006001600160a01b0316610a7c6114cd565b6001600160a01b031614610aa25760405162461bcd60e51b815260040161065590612396565b610aab826114e9565b610ab782826001611522565b5050565b6000306001600160a01b037f00000000000000000000000000000000000000000000000000000000000000001614610b5b5760405162461bcd60e51b815260206004820152603860248201527f555550535570677261646561626c653a206d757374206e6f742062652063616c60448201527f6c6564207468726f7567682064656c656761746563616c6c00000000000000006064820152608401610655565b506000805160206128b88339815191525b90565b6000610b796114cd565b905090565b33610b8983826110b3565b610bb857604051631bf6d43960e11b8152600481018490526001600160a01b0382166024820152604401610655565b600083815261015f6020526040808220805462ffff0019811660016101009283900461ffff90811682011690920217825561016054908201549251632568243b60e11b81526001600160a01b038681166004830152620100009094046001600160401b03166024820152919392600160381b9091041690634ad0487690604401602060405180830381865afa158015610c55573d6000803e3d6000fd5b505050506040513d601f19601f82011682018060405250810190610c799190612043565b6001600160a01b0381166000818152600285016020526040808220805460ff1916600117905551929350909187917f7b39c92a7e1a86e846edaeff6eba715a046352c596794c2a374269c126a9976891a3838015610cdb5750610cdb8561168d565b15610ce957610ce9856116d0565b5050505050565b60408051606080820183526000808352602080840182905292840181905284815261015f8352838120805485518085018752600183015461ffff80821683526001600160401b03620100008304811698840198909852600160501b9091049096169681019690965260038201805460ff8316976101009093049096169591949384939092909190610d80906120b2565b80601f0160208091040260200160405190810160405280929190818152602001828054610dac906120b2565b8015610df95780601f10610dce57610100808354040283529160200191610df9565b820191906000526020600020905b815481529060010190602001808311610ddc57829003601f168201915b5050505050935080600401805480602002602001604051908101604052809291908181526020016000905b82821015610f08576000848152602090819020604080516060810182526003860290920180546001600160a01b0316835260018101549383019390935260028301805492939291840191610e77906120b2565b80601f0160208091040260200160405190810160405280929190818152602001828054610ea3906120b2565b8015610ef05780601f10610ec557610100808354040283529160200191610ef0565b820191906000526020600020905b815481529060010190602001808311610ed357829003601f168201915b50505050508152505081526020019060010190610e24565b5050506005909201549799969850949693956001600160a01b039094169392505050565b60006104d68261168d565b60c9547fb1750e46d35a0069c8465b8643e7838d2149a842a2db8ee233d9835590040cad90610f75906001600160a01b031630335b846000366117a6565b610ab78261122f565b6000610b7961012d5490565b610f938161168d565b610fb357604051639fefd0f160e01b815260048101829052602401610655565b6109ff816116d0565b60006001600160e01b0319821663368d719960e21b14806104d657506104d682611862565b60006001600160401b038211156110495760405162461bcd60e51b815260206004820152602660248201527f53616665436173743a2076616c756520646f65736e27742066697420696e203660448201526534206269747360d01b6064820152608401610655565b5090565b60006110576118b2565b9050886001600160a01b0316817fa6c1f8f4276dc3f243459e13b557c84e8f4e90b2e09070bad5f6909cee687c9288888c8c8a8a8a60405161109f979695949392919061240b565b60405180910390a398975050505050505050565b600082815261015f602052604081206110cb816118cd565b6110d95760009150506104d6565b6101605460018201546040516302f9650f60e01b81526001600160a01b038681166004830152620100009092046001600160401b031660248201526000928392600160381b90910416906302f9650f906044016040805180830381865afa158015611148573d6000803e3d6000fd5b505050506040513d601f19601f8201168201806040525081019061116c919061251a565b90925090506001600160a01b038216158061118e57506001600160a01b038116155b1561119f57600093505050506104d6565b806001600160a01b0316856001600160a01b0316146111c457600093505050506104d6565b6001600160a01b038216600090815260028401602052604090205460ff16156111f357600093505050506104d6565b50600195945050505050565b600054610100900460ff166112265760405162461bcd60e51b815260040161065590612549565b6109ff8161190a565b61123f6080820160608301611d88565b6040516301ffc9a760e01b81526214a6cd60e31b60048201526001600160a01b0391909116906301ffc9a790602401602060405180830381865afa15801561128b573d6000803e3d6000fd5b505050506040513d601f19601f820116820180604052508101906112af9190612060565b6112e8576112c36080820160608301611d88565b604051631da756bb60e01b81526001600160a01b039091166004820152602401610655565b60006112fa6080830160608401611d88565b6001600160a01b03166327f1608d6040518163ffffffff1660e01b8152600401602060405180830381865afa158015611337573d6000803e3d6000fd5b505050506040513d601f19601f8201168201806040525081019061135b9190612594565b905061ffff811661137260408401602085016125bd565b61ffff1611156113b4578061138d60408401602085016125bd565b6040516317b10ead60e11b815261ffff928316600482015291166024820152604401610655565b60016113c660408401602085016125bd565b61ffff1610156113e257600161138d60408401602085016125bd565b816101606113f08282612606565b9050506113fc43610fe1565b610161805467ffffffffffffffff19166001600160401b039290921691909117905561142e60408301602084016125bd565b61ffff167fd8ed68ffce1be6e31a365bb80e645a1dc7ebb8c4dc2172fc0575ad5e2a1506fe61146060208501856126ee565b611470606086016040870161270b565b6114806080870160608801611d88565b61149060a088016080890161270b565b60408051941515855263ffffffff93841660208601526001600160a01b039092169184019190915216606082015260800160405180910390a25050565b6000805160206128b8833981519152546001600160a01b031690565b60c9547f821b6e3a557148015a918c89e5d092e878a69854a2d1a410635f771bd5a8a3f590610ab7906001600160a01b03163033610f6c565b7f4910fdfa16fed3260ed0e7147f7cc6da11a60208b5b9406d12a635614ffd91435460ff16156115555761093583611953565b826001600160a01b03166352d1902d6040518163ffffffff1660e01b8152600401602060405180830381865afa9250505080156115af575060408051601f3d908101601f191682019092526115ac91810190612594565b60015b6116125760405162461bcd60e51b815260206004820152602e60248201527f45524331393637557067726164653a206e657720696d706c656d656e7461746960448201526d6f6e206973206e6f74205555505360901b6064820152608401610655565b6000805160206128b883398151915281146116815760405162461bcd60e51b815260206004820152602960248201527f45524331393637557067726164653a20756e737570706f727465642070726f786044820152681a58589b195555525160ba1b6064820152608401610655565b506109358383836119ef565b600081815261015f602052604081206116a5816118cd565b6116b25750600092915050565b6001810154905461ffff918216610100909104909116101592915050565b600081815261015f6020526040808220805460ff191660011781559051909183917fbcf6a68a2f901be4a23a41b53acd7697893a7e34def4e28acba584da75283b679190a260058101546101605460405163ab0366e360e01b81526001600160a01b039092169163ab0366e3916117639160038601916004808801926000926301000000900463ffffffff1691016127a5565b6020604051808303816000875af1158015611782573d6000803e3d6000fd5b505050506040513d601f19601f820116820180604052508101906109359190612594565b604051637ef7c88360e11b81526001600160a01b0387169063fdef9106906117da908890889088908890889060040161285e565b602060405180830381865afa1580156117f7573d6000803e3d6000fd5b505050506040513d601f19601f8201168201806040525081019061181b9190612060565b61185a57604051630cb6f8ed60e21b81526001600160a01b03808816600483015280871660248301528516604482015260648101849052608401610655565b505050505050565b60006001600160e01b0319821663041de68360e41b148061189357506001600160e01b031982166352d1902d60e01b145b806104d657506301ffc9a760e01b6001600160e01b03198316146104d6565b60006118bc610f7e565b9050610b6c61012d80546001019055565b6000806118d942610fe1565b835490915060ff16158015610816575060018301546001600160401b03808316600160501b90920416119392505050565b600054610100900460ff166119315760405162461bcd60e51b815260040161065590612549565b60c980546001600160a01b0319166001600160a01b0392909216919091179055565b6001600160a01b0381163b6119c05760405162461bcd60e51b815260206004820152602d60248201527f455243313936373a206e657720696d706c656d656e746174696f6e206973206e60448201526c1bdd08184818dbdb9d1c9858dd609a1b6064820152608401610655565b6000805160206128b883398151915280546001600160a01b0319166001600160a01b0392909216919091179055565b6119f883611a1a565b600082511180611a055750805b1561093557611a148383611a5a565b50505050565b611a2381611953565b6040516001600160a01b038216907fbc7cd75a20ee27fd9adebab32041f755214dbc6bffa90cc0225b39da2e5c2d3b90600090a250565b606061081683836040518060600160405280602781526020016128d8602791396060600080856001600160a01b031685604051611a979190612892565b600060405180830381855af49150503d8060008114611ad2576040519150601f19603f3d011682016040523d82523d6000602084013e611ad7565b606091505b5091509150611ae886838387611af2565b9695505050505050565b60608315611b61578251600003611b5a576001600160a01b0385163b611b5a5760405162461bcd60e51b815260206004820152601d60248201527f416464726573733a2063616c6c20746f206e6f6e2d636f6e74726163740000006044820152606401610655565b5081611b6b565b611b6b8383611b73565b949350505050565b815115611b835781518083602001fd5b8060405162461bcd60e51b815260040161065591906128a4565b600060208284031215611baf57600080fd5b81356001600160e01b03198116811461081657600080fd5b6001600160a01b03811681146109ff57600080fd5b60008060408385031215611bef57600080fd5b823591506020830135611c0181611bc7565b809150509250929050565b60008083601f840112611c1e57600080fd5b5081356001600160401b03811115611c3557600080fd5b6020830191508360208260051b8501011115611c5057600080fd5b9250929050565b8035611c6281611bc7565b919050565b80151581146109ff57600080fd5b8035611c6281611c67565b60008060008060008060808789031215611c9957600080fd5b86356001600160401b0380821115611cb057600080fd5b818901915089601f830112611cc457600080fd5b813581811115611cd357600080fd5b8a6020828501011115611ce557600080fd5b602092830198509650908801359080821115611d0057600080fd5b50611d0d89828a01611c0c565b9095509350611d20905060408801611c57565b9150611d2e60608801611c75565b90509295509295509295565b600060a08284031215611d4c57600080fd5b50919050565b60008060c08385031215611d6557600080fd5b8235611d7081611bc7565b9150611d7f8460208501611d3a565b90509250929050565b600060208284031215611d9a57600080fd5b813561081681611bc7565b6020810160038310611dc757634e487b7160e01b600052602160045260246000fd5b91905290565b634e487b7160e01b600052604160045260246000fd5b60008060408385031215611df657600080fd5b8235611e0181611bc7565b915060208301356001600160401b0380821115611e1d57600080fd5b818501915085601f830112611e3157600080fd5b813581811115611e4357611e43611dcd565b604051601f8201601f19908116603f01168101908382118183101715611e6b57611e6b611dcd565b81604052828152886020848701011115611e8457600080fd5b8260208601602083013760006020848301015280955050505050509250929050565b60008060408385031215611eb957600080fd5b823591506020830135611c0181611c67565b600060208284031215611edd57600080fd5b5035919050565b60005b83811015611eff578181015183820152602001611ee7565b50506000910152565b60008151808452611f20816020860160208601611ee4565b601f01601f19169290920160200192915050565b60006101008815158352602061ffff808a16828601526040818a511681870152828a0151915060606001600160401b038084168289015280838d0151166080890152508460a0880152611f898588018b611f08565b87810360c089015289518082529095508486019350600581901b86018501858b0160005b83811015611ffd57888303601f19018752815180516001600160a01b031684528881015189850152860151868401869052611fea86850182611f08565b9789019793505090870190600101611fad565b50506001600160a01b038a1660e08a0152965061201c95505050505050565b979650505050505050565b600060a0828403121561203957600080fd5b6108168383611d3a565b60006020828403121561205557600080fd5b815161081681611bc7565b60006020828403121561207257600080fd5b815161081681611c67565b6001600160401b038181168382160190808211156120ab57634e487b7160e01b600052601160045260246000fd5b5092915050565b600181811c908216806120c657607f821691505b602082108103611d4c57634e487b7160e01b600052602260045260246000fd5b601f82111561093557600081815260208120601f850160051c8101602086101561210d5750805b601f850160051c820191505b8181101561185a57828155600101612119565b6001600160401b0383111561214357612143611dcd565b6121578361215183546120b2565b836120e6565b6000601f84116001811461218b57600085156121735750838201355b600019600387901b1c1916600186901b178355610ce9565b600083815260209020601f19861690835b828110156121bc578685013582556020948501946001909201910161219c565b50868210156121d95760001960f88860031b161c19848701351681555b505060018560011b0183555050505050565b634e487b7160e01b600052603260045260246000fd5b60008235605e1983360301811261221757600080fd5b9190910192915050565b813561222c81611bc7565b81546001600160a01b0319166001600160a01b03919091161781556020828101356001838101919091559060028301604085013536869003601e1901811261227357600080fd5b850180356001600160401b0381111561228b57600080fd5b803603848301131561229c57600080fd5b6122b0816122aa85546120b2565b856120e6565b6000601f8211600181146122e657600083156122ce57508382018601355b600019600385901b1c1916600184901b17855561233f565b600085815260209020601f19841690835b82811015612316578685018901358255938801939089019088016122f7565b50848210156123355760001960f88660031b161c198885880101351681555b50508683881b0185555b505050505050505050565b6020808252602c908201527f46756e6374696f6e206d7573742062652063616c6c6564207468726f7567682060408201526b19195b1959d85d1958d85b1b60a21b606082015260800190565b6020808252602c908201527f46756e6374696f6e206d7573742062652063616c6c6564207468726f7567682060408201526b6163746976652070726f787960a01b606082015260800190565b81835281816020850137506000828201602090810191909152601f909101601f19169091010190565b60006001600160401b03808a1683526020818a1681850152604060a08186015261243960a086018a8c6123e2565b606086820381880152818983528483019050848a60051b8401018b60005b8c8110156124fc57858303601f190184528135368f9003605e1901811261247d57600080fd5b8e01803561248a81611bc7565b6001600160a01b0316845280890135898501528781013536829003601e190181126124b457600080fd5b0188810190358a8111156124c757600080fd5b8036038213156124d657600080fd5b86898601526124e887860182846123e2565b958a01959450505090870190600101612457565b50508097505050505050505082608083015298975050505050505050565b6000806040838503121561252d57600080fd5b825161253881611bc7565b6020840151909250611c0181611bc7565b6020808252602b908201527f496e697469616c697a61626c653a20636f6e7472616374206973206e6f74206960408201526a6e697469616c697a696e6760a81b606082015260800190565b6000602082840312156125a657600080fd5b5051919050565b61ffff811681146109ff57600080fd5b6000602082840312156125cf57600080fd5b8135610816816125ad565b63ffffffff811681146109ff57600080fd5b600081356104d6816125da565b600081356104d681611bc7565b813561261181611c67565b815460ff19811691151560ff1691821783556020840135612631816125ad565b62ffff008160081b169050808362ffffff198416171784556040850135612657816125da565b66ffffffff0000008160181b168466ffffffffffffff198516178317178555505050506126bb612689606084016125f9565b828054670100000000000000600160d81b03191660389290921b670100000000000000600160d81b0316919091179055565b610ab76126ca608084016125ec565b82805463ffffffff60d81b191660d89290921b63ffffffff60d81b16919091179055565b60006020828403121561270057600080fd5b813561081681611c67565b60006020828403121561271d57600080fd5b8135610816816125da565b60008154612735816120b2565b808552602060018381168015612752576001811461276c5761279a565b60ff1985168884015283151560051b88018301955061279a565b866000528260002060005b858110156127925781548a8201860152908301908401612777565b890184019650505b505050505092915050565b6080815260006127b86080830187612728565b6020838203818501528187548084528284019150828160051b850101896000528360002060005b8381101561283457868303601f1901855281546001600160a01b0316835260018201548684015260606040840181905261281e81850160028501612728565b95870195935050600391909101906001016127df565b50506040870189905263ffffffff8816606088015294506128559350505050565b95945050505050565b6001600160a01b038681168252851660208201526040810184905260806060820181905260009061201c90830184866123e2565b60008251612217818460208701611ee4565b6020815260006108166020830184611f0856fe360894a13ba1a3210667c828492db98dca3e2076cc3735a920a3ca505d382bbc416464726573733a206c6f772d6c6576656c2064656c65676174652063616c6c206661696c6564a2646970667358221220dad2167a76b83491617d0cbad3e810464b963d9ad10c5d73b9d25364d915345164736f6c63430008110033",
    "linkReferences": {}
  },
  "methodIdentifiers": {
    "UPDATE_MULTISIG_SETTINGS_PERMISSION_ID()": "2caf024b",
    "UPGRADE_PLUGIN_PERMISSION_ID()": "c9c4bfca",
    "approve(uint256,bool)": "747442d3",
    "canApprove(uint256,address)": "29245f56",
    "canExecute(uint256)": "cc63604a",
    "createProposal(bytes,(address,uint256,bytes)[],address,bool)": "26d901db",
    "dao()": "4162169f",
    "execute(uint256)": "fe0d94c1",
    "getProposal(uint256)": "c7f758a8",
    "hasApproved(uint256,address)": "2358d5a8",
    "implementation()": "5c60da1b",
    "initialize(address,(bool,uint16,uint32,address,uint32))": "29715fc3",
    "lastMultisigSettingsChange()": "bc208302",
    "multisigSettings()": "e097b3ff",
    "pluginType()": "41de6830",
    "proposalCount()": "da35c664",
    "proxiableUUID()": "52d1902d",
    "supportsInterface(bytes4)": "01ffc9a7",
    "updateMultisigSettings((bool,uint16,uint32,address,uint32))": "cf94a86d",
    "upgradeTo(address)": "3659cfe6",
    "upgradeToAndCall(address,bytes)": "4f1ef286"
  },
  "id": 156
}