{"abi":[{"type":"constructor","inputs":[],"stateMutability":"nonpayable"},{"type":"function","name":"PROPOSER_PERMISSION_ID","inputs":[],"outputs":[{"name":"","type":"bytes32","internalType":"bytes32"}],"stateMutability":"view"},{"type":"function","name":"UPDATE_OPTIMISTIC_GOVERNANCE_SETTINGS_PERMISSION_ID","inputs":[],"outputs":[{"name":"","type":"bytes32","internalType":"bytes32"}],"stateMutability":"view"},{"type":"function","name":"UPGRADE_PLUGIN_PERMISSION_ID","inputs":[],"outputs":[{"name":"","type":"bytes32","internalType":"bytes32"}],"stateMutability":"view"},{"type":"function","name":"bridgedVotingPower","inputs":[{"name":"_timestamp","type":"uint256","internalType":"uint256"}],"outputs":[{"name":"","type":"uint256","internalType":"uint256"}],"stateMutability":"view"},{"type":"function","name":"canExecute","inputs":[{"name":"_proposalId","type":"uint256","internalType":"uint256"}],"outputs":[{"name":"","type":"bool","internalType":"bool"}],"stateMutability":"view"},{"type":"function","name":"canVeto","inputs":[{"name":"_proposalId","type":"uint256","internalType":"uint256"},{"name":"_voter","type":"address","internalType":"address"}],"outputs":[{"name":"","type":"bool","internalType":"bool"}],"stateMutability":"view"},{"type":"function","name":"createProposal","inputs":[{"name":"_metadata","type":"bytes","internalType":"bytes"},{"name":"_actions","type":"tuple[]","internalType":"struct IDAO.Action[]","components":[{"name":"to","type":"address","internalType":"address"},{"name":"value","type":"uint256","internalType":"uint256"},{"name":"data","type":"bytes","internalType":"bytes"}]},{"name":"_allowFailureMap","type":"uint256","internalType":"uint256"},{"name":"_duration","type":"uint64","internalType":"uint64"}],"outputs":[{"name":"proposalId","type":"uint256","internalType":"uint256"}],"stateMutability":"nonpayable"},{"type":"function","name":"dao","inputs":[],"outputs":[{"name":"","type":"address","internalType":"contract IDAO"}],"stateMutability":"view"},{"type":"function","name":"effectiveVotingPower","inputs":[{"name":"_timestamp","type":"uint256","internalType":"uint256"},{"name":"_includeL2VotingPower","type":"bool","internalType":"bool"}],"outputs":[{"name":"","type":"uint256","internalType":"uint256"}],"stateMutability":"view"},{"type":"function","name":"execute","inputs":[{"name":"_proposalId","type":"uint256","internalType":"uint256"}],"outputs":[],"stateMutability":"nonpayable"},{"type":"function","name":"getProposal","inputs":[{"name":"_proposalId","type":"uint256","internalType":"uint256"}],"outputs":[{"name":"open","type":"bool","internalType":"bool"},{"name":"executed","type":"bool","internalType":"bool"},{"name":"parameters","type":"tuple","internalType":"struct OptimisticTokenVotingPlugin.ProposalParameters","components":[{"name":"vetoEndDate","type":"uint64","internalType":"uint64"},{"name":"snapshotTimestamp","type":"uint64","internalType":"uint64"},{"name":"minVetoRatio","type":"uint32","internalType":"uint32"},{"name":"unavailableL2","type":"bool","internalType":"bool"}]},{"name":"vetoTally","type":"uint256","internalType":"uint256"},{"name":"metadataURI","type":"bytes","internalType":"bytes"},{"name":"actions","type":"tuple[]","internalType":"struct IDAO.Action[]","components":[{"name":"to","type":"address","internalType":"address"},{"name":"value","type":"uint256","internalType":"uint256"},{"name":"data","type":"bytes","internalType":"bytes"}]},{"name":"allowFailureMap","type":"uint256","internalType":"uint256"}],"stateMutability":"view"},{"type":"function","name":"governanceSettings","inputs":[],"outputs":[{"name":"minVetoRatio","type":"uint32","internalType":"uint32"},{"name":"minDuration","type":"uint32","internalType":"uint32"},{"name":"timelockPeriod","type":"uint32","internalType":"uint32"},{"name":"l2InactivityPeriod","type":"uint32","internalType":"uint32"},{"name":"l2AggregationGracePeriod","type":"uint32","internalType":"uint32"},{"name":"skipL2","type":"bool","internalType":"bool"}],"stateMutability":"view"},{"type":"function","name":"hasVetoed","inputs":[{"name":"_proposalId","type":"uint256","internalType":"uint256"},{"name":"_voter","type":"address","internalType":"address"}],"outputs":[{"name":"","type":"bool","internalType":"bool"}],"stateMutability":"view"},{"type":"function","name":"implementation","inputs":[],"outputs":[{"name":"","type":"address","internalType":"address"}],"stateMutability":"view"},{"type":"function","name":"initialize","inputs":[{"name":"_dao","type":"address","internalType":"contract IDAO"},{"name":"_governanceSettings","type":"tuple","internalType":"struct OptimisticTokenVotingPlugin.OptimisticGovernanceSettings","components":[{"name":"minVetoRatio","type":"uint32","internalType":"uint32"},{"name":"minDuration","type":"uint32","internalType":"uint32"},{"name":"timelockPeriod","type":"uint32","internalType":"uint32"},{"name":"l2InactivityPeriod","type":"uint32","internalType":"uint32"},{"name":"l2AggregationGracePeriod","type":"uint32","internalType":"uint32"},{"name":"skipL2","type":"bool","internalType":"bool"}]},{"name":"_token","type":"address","internalType":"contract IVotesUpgradeable"},{"name":"_taikoL1","type":"address","internalType":"address"},{"name":"_taikoBridge","type":"address","internalType":"address"}],"outputs":[],"stateMutability":"nonpayable"},{"type":"function","name":"isL2Available","inputs":[],"outputs":[{"name":"","type":"bool","internalType":"bool"}],"stateMutability":"view"},{"type":"function","name":"isMember","inputs":[{"name":"_account","type":"address","internalType":"address"}],"outputs":[{"name":"","type":"bool","internalType":"bool"}],"stateMutability":"view"},{"type":"function","name":"isMinVetoRatioReached","inputs":[{"name":"_proposalId","type":"uint256","internalType":"uint256"}],"outputs":[{"name":"","type":"bool","internalType":"bool"}],"stateMutability":"view"},{"type":"function","name":"minVetoRatio","inputs":[],"outputs":[{"name":"","type":"uint32","internalType":"uint32"}],"stateMutability":"view"},{"type":"function","name":"parseProposalId","inputs":[{"name":"_proposalId","type":"uint256","internalType":"uint256"}],"outputs":[{"name":"counter","type":"uint256","internalType":"uint256"},{"name":"startDate","type":"uint64","internalType":"uint64"},{"name":"endDate","type":"uint64","internalType":"uint64"}],"stateMutability":"pure"},{"type":"function","name":"pluginType","inputs":[],"outputs":[{"name":"","type":"uint8","internalType":"enum IPlugin.PluginType"}],"stateMutability":"pure"},{"type":"function","name":"proposalCount","inputs":[],"outputs":[{"name":"","type":"uint256","internalType":"uint256"}],"stateMutability":"view"},{"type":"function","name":"proposalIds","inputs":[{"name":"","type":"uint256","internalType":"uint256"}],"outputs":[{"name":"","type":"uint256","internalType":"uint256"}],"stateMutability":"view"},{"type":"function","name":"proxiableUUID","inputs":[],"outputs":[{"name":"","type":"bytes32","internalType":"bytes32"}],"stateMutability":"view"},{"type":"function","name":"supportsInterface","inputs":[{"name":"_interfaceId","type":"bytes4","internalType":"bytes4"}],"outputs":[{"name":"","type":"bool","internalType":"bool"}],"stateMutability":"view"},{"type":"function","name":"taikoBridge","inputs":[],"outputs":[{"name":"","type":"address","internalType":"address"}],"stateMutability":"view"},{"type":"function","name":"taikoL1","inputs":[],"outputs":[{"name":"","type":"address","internalType":"contract ITaikoL1"}],"stateMutability":"view"},{"type":"function","name":"totalVotingPower","inputs":[{"name":"_timestamp","type":"uint256","internalType":"uint256"}],"outputs":[{"name":"","type":"uint256","internalType":"uint256"}],"stateMutability":"view"},{"type":"function","name":"updateOptimisticGovernanceSettings","inputs":[{"name":"_governanceSettings","type":"tuple","internalType":"struct OptimisticTokenVotingPlugin.OptimisticGovernanceSettings","components":[{"name":"minVetoRatio","type":"uint32","internalType":"uint32"},{"name":"minDuration","type":"uint32","internalType":"uint32"},{"name":"timelockPeriod","type":"uint32","internalType":"uint32"},{"name":"l2InactivityPeriod","type":"uint32","internalType":"uint32"},{"name":"l2AggregationGracePeriod","type":"uint32","internalType":"uint32"},{"name":"skipL2","type":"bool","internalType":"bool"}]}],"outputs":[],"stateMutability":"nonpayable"},{"type":"function","name":"upgradeTo","inputs":[{"name":"newImplementation","type":"address","internalType":"address"}],"outputs":[],"stateMutability":"nonpayable"},{"type":"function","name":"upgradeToAndCall","inputs":[{"name":"newImplementation","type":"address","internalType":"address"},{"name":"data","type":"bytes","internalType":"bytes"}],"outputs":[],"stateMutability":"payable"},{"type":"function","name":"veto","inputs":[{"name":"_proposalId","type":"uint256","internalType":"uint256"}],"outputs":[],"stateMutability":"nonpayable"},{"type":"function","name":"votingToken","inputs":[],"outputs":[{"name":"","type":"address","internalType":"contract IVotesUpgradeable"}],"stateMutability":"view"},{"type":"event","name":"AdminChanged","inputs":[{"name":"previousAdmin","type":"address","indexed":false,"internalType":"address"},{"name":"newAdmin","type":"address","indexed":false,"internalType":"address"}],"anonymous":false},{"type":"event","name":"BeaconUpgraded","inputs":[{"name":"beacon","type":"address","indexed":true,"internalType":"address"}],"anonymous":false},{"type":"event","name":"Initialized","inputs":[{"name":"version","type":"uint8","indexed":false,"internalType":"uint8"}],"anonymous":false},{"type":"event","name":"MembersAdded","inputs":[{"name":"members","type":"address[]","indexed":false,"internalType":"address[]"}],"anonymous":false},{"type":"event","name":"MembersRemoved","inputs":[{"name":"members","type":"address[]","indexed":false,"internalType":"address[]"}],"anonymous":false},{"type":"event","name":"MembershipContractAnnounced","inputs":[{"name":"definingContract","type":"address","indexed":true,"internalType":"address"}],"anonymous":false},{"type":"event","name":"OptimisticGovernanceSettingsUpdated","inputs":[{"name":"minVetoRatio","type":"uint32","indexed":false,"internalType":"uint32"},{"name":"minDuration","type":"uint64","indexed":false,"internalType":"uint64"},{"name":"l2AggregationGracePeriod","type":"uint64","indexed":false,"internalType":"uint64"},{"name":"l2InactivityPeriod","type":"uint64","indexed":false,"internalType":"uint64"},{"name":"skipL2","type":"bool","indexed":false,"internalType":"bool"}],"anonymous":false},{"type":"event","name":"ProposalCreated","inputs":[{"name":"proposalId","type":"uint256","indexed":true,"internalType":"uint256"},{"name":"creator","type":"address","indexed":true,"internalType":"address"},{"name":"startDate","type":"uint64","indexed":false,"internalType":"uint64"},{"name":"endDate","type":"uint64","indexed":false,"internalType":"uint64"},{"name":"metadata","type":"bytes","indexed":false,"internalType":"bytes"},{"name":"actions","type":"tuple[]","indexed":false,"internalType":"struct IDAO.Action[]","components":[{"name":"to","type":"address","internalType":"address"},{"name":"value","type":"uint256","internalType":"uint256"},{"name":"data","type":"bytes","internalType":"bytes"}]},{"name":"allowFailureMap","type":"uint256","indexed":false,"internalType":"uint256"}],"anonymous":false},{"type":"event","name":"ProposalExecuted","inputs":[{"name":"proposalId","type":"uint256","indexed":true,"internalType":"uint256"}],"anonymous":false},{"type":"event","name":"Upgraded","inputs":[{"name":"implementation","type":"address","indexed":true,"internalType":"address"}],"anonymous":false},{"type":"event","name":"VetoCast","inputs":[{"name":"proposalId","type":"uint256","indexed":true,"internalType":"uint256"},{"name":"voter","type":"address","indexed":true,"internalType":"address"},{"name":"votingPower","type":"uint256","indexed":false,"internalType":"uint256"}],"anonymous":false},{"type":"error","name":"DaoUnauthorized","inputs":[{"name":"dao","type":"address","internalType":"address"},{"name":"where","type":"address","internalType":"address"},{"name":"who","type":"address","internalType":"address"},{"name":"permissionId","type":"bytes32","internalType":"bytes32"}]},{"type":"error","name":"DurationOutOfBounds","inputs":[{"name":"limit","type":"uint64","internalType":"uint64"},{"name":"actual","type":"uint64","internalType":"uint64"}]},{"type":"error","name":"EmptyAddress","inputs":[]},{"type":"error","name":"MinDurationOutOfBounds","inputs":[{"name":"limit","type":"uint64","internalType":"uint64"},{"name":"actual","type":"uint64","internalType":"uint64"}]},{"type":"error","name":"NoVotingPower","inputs":[]},{"type":"error","name":"ProposalExecutionForbidden","inputs":[{"name":"proposalId","type":"uint256","internalType":"uint256"}]},{"type":"error","name":"ProposalVetoingForbidden","inputs":[{"name":"proposalId","type":"uint256","internalType":"uint256"},{"name":"account","type":"address","internalType":"address"}]},{"type":"error","name":"RatioOutOfBounds","inputs":[{"name":"limit","type":"uint256","internalType":"uint256"},{"name":"actual","type":"uint256","internalType":"uint256"}]}],"bytecode":{"object":"0x60a0604052306080523480156200001557600080fd5b506200002062000030565b6200002a62000030565b620000f1565b600054610100900460ff16156200009d5760405162461bcd60e51b815260206004820152602760248201527f496e697469616c697a61626c653a20636f6e747261637420697320696e697469604482015266616c697a696e6760c81b606482015260840160405180910390fd5b60005460ff90811614620000ef576000805460ff191660ff9081179091556040519081527f7f26b83ff96e1f2b6a682f133852f6798a09c465da95921460cefb38474024989060200160405180910390a15b565b6080516134a26200012960003960008181610d4601528181610d8601528181610e8301528181610ec30152610f3b01526134a26000f3fe6080604052600436106101ee5760003560e01c8063560d58b01161010d578063ab0366e3116100a0578063cc63604a1161006f578063cc63604a146106a9578063da35c664146106c9578063dd9a7736146106de578063e6944e16146106fe578063fe0d94c11461073257600080fd5b8063ab0366e314610601578063b034012314610621578063c7f758a814610642578063c9c4bfca1461067557600080fd5b80636659a091116100dc5780636659a09114610530578063856796f91461058d5780639b644a23146105b3578063a230c524146105e157600080fd5b8063560d58b01461041d578063579baff61461043d5780635c60da1b1461048857806362354e031461049d57600080fd5b80633659cfe6116101855780634f1ef286116101545780634f1ef286146103b457806352b8f191146103c757806352d1902d146103e8578063536f9f42146103fd57600080fd5b80633659cfe61461033a57806340a4d6fe1461035a5780634162169f1461037a57806341de68301461039857600080fd5b806315e0ffdd116101c157806315e0ffdd146102985780631d28dec7146102b85780632d5cd31e146102d85780632fa59f091461031a57600080fd5b806301db9ca1146101f357806301ffc9a71461021d578063101007131461023d57806310b94c6414610276575b600080fd5b3480156101ff57600080fd5b50610208610752565b60405190151581526020015b60405180910390f35b34801561022957600080fd5b506102086102383660046125f0565b6108b2565b34801561024957600080fd5b506101615461025e906001600160a01b031681565b6040516001600160a01b039091168152602001610214565b34801561028257600080fd5b50610296610291366004612632565b6108c3565b005b3480156102a457600080fd5b506102086102b3366004612663565b61090e565b3480156102c457600080fd5b506102966102d3366004612693565b610a26565b3480156102e457600080fd5b5061030c7f3dc194e23158bc1a3f2c26e18c8c910b557388bad663356cd4fc49c11477a4a481565b604051908152602001610214565b34801561032657600080fd5b506102966103353660046126ac565b610b81565b34801561034657600080fd5b5061029661035536600461271f565b610d3c565b34801561036657600080fd5b50610208610375366004612693565b610e04565b34801561038657600080fd5b5060c9546001600160a01b031661025e565b3480156103a457600080fd5b506000604051610214919061273c565b6102966103c23660046127d1565b610e79565b3480156103d357600080fd5b506101605461025e906001600160a01b031681565b3480156103f457600080fd5b5061030c610f2e565b34801561040957600080fd5b5061030c610418366004612693565b610fe2565b34801561042957600080fd5b5061030c610438366004612693565b611052565b34801561044957600080fd5b50610208610458366004612663565b6000828152610163602090815260408083206001600160a01b038516845260030190915290205460ff1692915050565b34801561049457600080fd5b5061025e611094565b3480156104a957600080fd5b50610162546104f09063ffffffff808216916401000000008104821691600160401b8204811691600160601b8104821691600160801b82041690600160a01b900460ff1686565b6040805163ffffffff97881681529587166020870152938616938501939093529084166060840152909216608082015290151560a082015260c001610214565b34801561053c57600080fd5b5061056861054b366004612693565b6001600160401b0381811692608083901c82169260401c90911690565b604080519384526001600160401b039283166020850152911690820152606001610214565b34801561059957600080fd5b506101625460405163ffffffff9091168152602001610214565b3480156105bf57600080fd5b5061030c6105ce366004612693565b6101646020526000908152604090205481565b3480156105ed57600080fd5b506102086105fc36600461271f565b6110a3565b34801561060d57600080fd5b5061030c61061c3660046128d3565b611194565b34801561062d57600080fd5b5061015f5461025e906001600160a01b031681565b34801561064e57600080fd5b5061066261065d366004612693565b611625565b6040516102149796959493929190612a53565b34801561068157600080fd5b5061030c7f821b6e3a557148015a918c89e5d092e878a69854a2d1a410635f771bd5a8a3f581565b3480156106b557600080fd5b506102086106c4366004612693565b61187f565b3480156106d557600080fd5b5061030c611905565b3480156106ea57600080fd5b5061030c6106f9366004612af0565b611911565b34801561070a57600080fd5b5061030c7f8513c2609a72007a81419055c80fdd2cf7e49f07dffbb28683bb4593636ce3b281565b34801561073e57600080fd5b5061029661074d366004612693565b611946565b61016254600090600160a01b900460ff161561076e5750600090565b61016160009054906101000a90046001600160a01b03166001600160a01b0316635c975abb6040518163ffffffff1660e01b8152600401602060405180830381865afa9250505080156107de575060408051601f3d908101601f191682019092526107db91810190612b15565b60015b6107e85750600090565b80156107f657600091505090565b5061016160009054906101000a90046001600160a01b03166001600160a01b03166326af79866040518163ffffffff1660e01b8152600401608060405180830381865afa925050508015610867575060408051601f3d908101601f1916820190925261086491810190612b32565b60015b6108715750600090565b61016254429061088e90600160601b900463ffffffff1683612b94565b6001600160401b031610156108a857600094505050505090565b5050505050600190565b60006108bd82611adc565b92915050565b60c9547f3dc194e23158bc1a3f2c26e18c8c910b557388bad663356cd4fc49c11477a4a490610901906001600160a01b031630335b84600036611b01565b61090a82611bb5565b5050565b60008281526101636020526040812061092681611d53565b6109345760009150506108bd565b6001600160a01b038316600090815260038201602052604090205460ff16156109615760009150506108bd565b61015f546001820154604051630748d63560e31b81526001600160a01b038681166004830152600160401b9092046001600160401b03166024820152911690633a46b1a890604401602060405180830381865afa1580156109c6573d6000803e3d6000fd5b505050506040513d601f19601f820116820180604052508101906109ea9190612bb4565b6000036109fb5760009150506108bd565b610160546001600160a01b0390811690841603610a1c5760009150506108bd565b5060019392505050565b33610a31828261090e565b610a655760405163f6280ad560e01b8152600481018390526001600160a01b03821660248201526044015b60405180910390fd5b6000828152610163602052604080822061015f5460018201549251630748d63560e31b81526001600160a01b038681166004830152600160401b9094046001600160401b031660248201529193921690633a46b1a890604401602060405180830381865afa158015610adb573d6000803e3d6000fd5b505050506040513d601f19601f82011682018060405250810190610aff9190612bb4565b905080826002016000828254610b159190612bcd565b90915550506001600160a01b038316600081815260038401602052604090819020805460ff191660011790555185907f7139c1fd7776a46784fc9bbd2f82c38769babe57ccc09e1a321d01f452023d1f90610b739085815260200190565b60405180910390a350505050565b600054610100900460ff1615808015610ba15750600054600160ff909116105b80610bbb5750303b158015610bbb575060005460ff166001145b610c1e5760405162461bcd60e51b815260206004820152602e60248201527f496e697469616c697a61626c653a20636f6e747261637420697320616c72656160448201526d191e481a5b9a5d1a585b1a5e995960921b6064820152608401610a5c565b6000805460ff191660011790558015610c41576000805461ff0019166101001790555b610c4a86611d87565b6001600160a01b038316610c7157604051637138356f60e01b815260040160405180910390fd5b61015f80546001600160a01b038087166001600160a01b0319928316179092556101618054868416908316179055610160805492851692909116919091179055610cba85611bb5565b6040516001600160a01b038516907f3f1ec22954d444cb99f80a1989ac8f631616b8a575a89379e514c0f7f748c93390600090a28015610d34576000805461ff0019169055604051600181527f7f26b83ff96e1f2b6a682f133852f6798a09c465da95921460cefb38474024989060200160405180910390a15b505050505050565b6001600160a01b037f0000000000000000000000000000000000000000000000000000000000000000163003610d845760405162461bcd60e51b8152600401610a5c90612be0565b7f00000000000000000000000000000000000000000000000000000000000000006001600160a01b0316610db6611db7565b6001600160a01b031614610ddc5760405162461bcd60e51b8152600401610a5c90612c2c565b610de581611dd3565b60408051600080825260208201909252610e0191839190611e0c565b50565b60008181526101636020526040812081610e1d82611f77565b6001830154909150600090610e4290600160401b90046001600160401b031683611911565b6001840154909150600090610e65908390600160801b900463ffffffff16611f99565b600290940154939093101595945050505050565b6001600160a01b037f0000000000000000000000000000000000000000000000000000000000000000163003610ec15760405162461bcd60e51b8152600401610a5c90612be0565b7f00000000000000000000000000000000000000000000000000000000000000006001600160a01b0316610ef3611db7565b6001600160a01b031614610f195760405162461bcd60e51b8152600401610a5c90612c2c565b610f2282611dd3565b61090a82826001611e0c565b6000306001600160a01b037f00000000000000000000000000000000000000000000000000000000000000001614610fce5760405162461bcd60e51b815260206004820152603860248201527f555550535570677261646561626c653a206d757374206e6f742062652063616c60448201527f6c6564207468726f7567682064656c656761746563616c6c00000000000000006064820152608401610a5c565b506000805160206134268339815191525b90565b61015f54604051632394e7a360e21b8152600481018390526000916001600160a01b031690638e539e8c906024015b602060405180830381865afa15801561102e573d6000803e3d6000fd5b505050506040513d601f19601f820116820180604052508101906108bd9190612bb4565b61015f5461016054604051630748d63560e31b81526001600160a01b039182166004820152602481018490526000929190911690633a46b1a890604401611011565b600061109e611db7565b905090565b61015f546040516309ab24eb60e41b81526001600160a01b0383811660048301526000928392911690639ab24eb090602401602060405180830381865afa1580156110f2573d6000803e3d6000fd5b505050506040513d601f19601f820116820180604052508101906111169190612bb4565b11806108bd575061015f546040516370a0823160e01b81526001600160a01b03848116600483015260009216906370a0823190602401602060405180830381865afa158015611169573d6000803e3d6000fd5b505050506040513d601f19601f8201168201806040525081019061118d9190612bb4565b1192915050565b60c9546000907f8513c2609a72007a81419055c80fdd2cf7e49f07dffbb28683bb4593636ce3b2906111d0906001600160a01b031630336108f8565b600019420160006111df610752565b8015611266575061015f5461016054604051630748d63560e31b81526001600160a01b039182166004820152602481018590526000929190911690633a46b1a890604401602060405180830381865afa158015611240573d6000803e3d6000fd5b505050506040513d601f19601f820116820180604052508101906112649190612bb4565b115b90506112728282611911565b60000361129257604051631f05dadd60e21b815260040160405180910390fd5b61016254640100000000900463ffffffff166001600160401b03861610156112f0576101625460405163e50f130b60e01b815264010000000090910463ffffffff1660048201526001600160401b0386166024820152604401610a5c565b60006112fb42612010565b905060006113098783612b94565b905061131b338d8d85858f8f8f61207c565b9550856101646000600161132d611905565b6113379190612c78565b8152602080820192909252604090810160009081209390935588835261016390915290206004810161136a8d8f83612d05565b5060018101805467ffffffffffffffff19166001600160401b03841617905561139285612010565b6001820180546001600160401b0392909216600160401b026fffffffffffffffff0000000000000000199092169190911790556113d56101625463ffffffff1690565b60018201805463ffffffff92909216600160801b0263ffffffff60801b1990921691909117905583158061141057506001600160401b038816155b1561142b5760018101805460ff60a01b1916600160a01b1790555b881561143957600681018990555b60005b8a81101561149857816005018c8c8381811061145a5761145a612dc5565b905060200281019061146c9190612ddb565b81546001810183556000928352602090922090916003020161148e8282612dfb565b505060010161143c565b50876001600160401b031660000361161557600087815261016360205260409020805460ff191660011790556116126114d960c9546001600160a01b031690565b8861016360008b8152602001908152602001600020600501805480602002602001604051908101604052809291908181526020016000905b828210156115f5576000848152602090819020604080516060810182526003860290920180546001600160a01b031683526001810154938301939093526002830180549293929184019161156490612c8b565b80601f016020809104026020016040519081016040528092919081815260200182805461159090612c8b565b80156115dd5780601f106115b2576101008083540402835291602001916115dd565b820191906000526020600020905b8154815290600101906020018083116115c057829003601f168201915b50505050508152505081526020019060010190611511565b50505060008c8152610163602052604090206006015490506120e4565b50505b5050505050509695505050505050565b604080516080810182526000808252602082018190529181018290526060810182905281906000848152610163602052604081206060908190839061166981611d53565b81546040805160808101825260018501546001600160401b038082168352600160401b8204166020830152600160801b810463ffffffff169282019290925260ff600160a01b9092048216151560608201526002850154600486018054959d50929093169a509850909650906116de90612c8b565b80601f016020809104026020016040519081016040528092919081815260200182805461170a90612c8b565b80156117575780601f1061172c57610100808354040283529160200191611757565b820191906000526020600020905b81548152906001019060200180831161173a57829003601f168201915b5050505050935080600501805480602002602001604051908101604052809291908181526020016000905b82821015611866576000848152602090819020604080516060810182526003860290920180546001600160a01b03168352600181015493830193909352600283018054929392918401916117d590612c8b565b80601f016020809104026020016040519081016040528092919081815260200182805461180190612c8b565b801561184e5780601f106118235761010080835404028352916020019161184e565b820191906000526020600020905b81548152906001019060200180831161183157829003601f168201915b50505050508152505081526020019060010190611782565b5050505092508060060154915050919395979092949650565b600081815261016360205260408120805460ff16156118a15750600092915050565b6118aa8161219a565b6118b75750600092915050565b6118c0816121c4565b156118ce5750600092915050565b6118d783610e04565b156118e55750600092915050565b6118ee8161222e565b156118fc5750600092915050565b50600192915050565b600061109e61012d5490565b60008061191d84610fe2565b90508261193f5761192d84611052565b6119379082612c78565b9150506108bd565b9392505050565b61194f8161187f565b61196f57604051639fefd0f160e01b815260048101829052602401610a5c565b600081815261016360205260409020805460ff19166001179055611ad761199e60c9546001600160a01b031690565b826101636000858152602001908152602001600020600501805480602002602001604051908101604052809291908181526020016000905b82821015611aba576000848152602090819020604080516060810182526003860290920180546001600160a01b0316835260018101549383019390935260028301805492939291840191611a2990612c8b565b80601f0160208091040260200160405190810160405280929190818152602001828054611a5590612c8b565b8015611aa25780601f10611a7757610100808354040283529160200191611aa2565b820191906000526020600020905b815481529060010190602001808311611a8557829003601f168201915b505050505081525050815260200190600101906119d6565b5050506000868152610163602052604090206006015490506120e4565b505050565b60006001600160e01b0319821663368d719960e21b14806108bd57506108bd826122b4565b604051637ef7c88360e11b81526001600160a01b0387169063fdef910690611b359088908890889088908890600401612f4d565b602060405180830381865afa158015611b52573d6000803e3d6000fd5b505050506040513d601f19601f82011682018060405250810190611b769190612b15565b610d3457604051630cb6f8ed60e21b81526001600160a01b03808816600483015280871660248301528516604482015260648101849052608401610a5c565b611bc26020820182612f9e565b63ffffffff16600003611c06576001611bde6020830183612f9e565b60405163cc80c19560e01b8152600481019290925263ffffffff166024820152604401610a5c565b620f4240611c176020830183612f9e565b63ffffffff161115611c3457620f4240611bde6020830183612f9e565b6301e13380611c496040830160208401612f9e565b63ffffffff161115611c9a576301e13380611c6a6040830160208401612f9e565b60405163628819f760e11b81526001600160401b03909216600483015263ffffffff166024820152604401610a5c565b80610162611ca88282612fd5565b507fe2675522b8aeb65f5f6ae28abd671f5c115b0614fb78d44c00017269e86183ad9050611cd96020830183612f9e565b611ce96040840160208501612f9e565b611cf960a0850160808601612f9e565b611d096080860160608701612f9e565b611d1960c0870160a088016130ed565b6040805163ffffffff968716815294861660208601529285168484015293166060830152911515608082015290519081900360a00190a150565b60018101546000906001600160401b0316611d6d42612010565b6001600160401b03161080156108bd5750505460ff161590565b600054610100900460ff16611dae5760405162461bcd60e51b8152600401610a5c9061310a565b610e0181612304565b600080516020613426833981519152546001600160a01b031690565b60c9547f821b6e3a557148015a918c89e5d092e878a69854a2d1a410635f771bd5a8a3f59061090a906001600160a01b031630336108f8565b7f4910fdfa16fed3260ed0e7147f7cc6da11a60208b5b9406d12a635614ffd91435460ff1615611e3f57611ad78361234d565b826001600160a01b03166352d1902d6040518163ffffffff1660e01b8152600401602060405180830381865afa925050508015611e99575060408051601f3d908101601f19168201909252611e9691810190612bb4565b60015b611efc5760405162461bcd60e51b815260206004820152602e60248201527f45524331393637557067726164653a206e657720696d706c656d656e7461746960448201526d6f6e206973206e6f74205555505360901b6064820152608401610a5c565b6000805160206134268339815191528114611f6b5760405162461bcd60e51b815260206004820152602960248201527f45524331393637557067726164653a20756e737570706f727465642070726f786044820152681a58589b195555525160ba1b6064820152608401610a5c565b50611ad78383836123e9565b6000611f82826121c4565b15611f8f57506001919050565b5060070154151590565b6000620f4240821115611fcb5760405163cc80c19560e01b8152620f4240600482015260248101839052604401610a5c565b611fd58284613155565b92506000611fe6620f424085613182565b9050611ff5620f424085613196565b9150801561200957612006826131aa565b91505b5092915050565b60006001600160401b038211156120785760405162461bcd60e51b815260206004820152602660248201527f53616665436173743a2076616c756520646f65736e27742066697420696e203660448201526534206269747360d01b6064820152608401610a5c565b5090565b60006120888686612414565b9050886001600160a01b0316817fa6c1f8f4276dc3f243459e13b557c84e8f4e90b2e09070bad5f6909cee687c9288888c8c8a8a8a6040516120d097969594939291906131c3565b60405180910390a398975050505050505050565b6040516331c6fcc960e21b81526060906000906001600160a01b0387169063c71bf3249061211a908890889088906004016132d2565b6000604051808303816000875af1158015612139573d6000803e3d6000fd5b505050506040513d6000823e601f3d908101601f1916820160405261216191908101906132fb565b604051919350915085907f712ae1383f79ac853f8d882153778e0260ef8f03b504e2866e0593e04d2b291f90600090a294509492505050565b6000806121a642612010565b6001909301546001600160401b039081169316929092101592915050565b6001810154600090600160a01b900460ff16156121e357506000919050565b61016254600183015461220c91600160801b900463ffffffff16906001600160401b0316612b94565b6001600160401b031661221e42612010565b6001600160401b03161092915050565b610162546001820154600091829161225c91600160401b900463ffffffff16906001600160401b0316612b94565b6001840154909150600160a01b900460ff16612290576101625461228d90600160801b900463ffffffff1682612b94565b90505b806001600160401b03166122a342612010565b6001600160401b0316109392505050565b60006001600160e01b0319821663041de68360e41b14806122e557506001600160e01b031982166352d1902d60e01b145b806108bd57506301ffc9a760e01b6001600160e01b03198316146108bd565b600054610100900460ff1661232b5760405162461bcd60e51b8152600401610a5c9061310a565b60c980546001600160a01b0319166001600160a01b0392909216919091179055565b6001600160a01b0381163b6123ba5760405162461bcd60e51b815260206004820152602d60248201527f455243313936373a206e657720696d706c656d656e746174696f6e206973206e60448201526c1bdd08184818dbdb9d1c9858dd609a1b6064820152608401610a5c565b60008051602061342683398151915280546001600160a01b0319166001600160a01b0392909216919091179055565b6123f28361244d565b6000825111806123ff5750805b15611ad75761240e838361248d565b50505050565b67ffffffffffffffff60801b608083901b166fffffffffffffffff0000000000000000604083901b16176124466124b2565b1792915050565b6124568161234d565b6040516001600160a01b038216907fbc7cd75a20ee27fd9adebab32041f755214dbc6bffa90cc0225b39da2e5c2d3b90600090a250565b606061193f8383604051806060016040528060278152602001613446602791396124cd565b60006124bc611905565b9050610fdf61012d80546001019055565b6060600080856001600160a01b0316856040516124ea9190613400565b600060405180830381855af49150503d8060008114612525576040519150601f19603f3d011682016040523d82523d6000602084013e61252a565b606091505b509150915061253b86838387612545565b9695505050505050565b606083156125b45782516000036125ad576001600160a01b0385163b6125ad5760405162461bcd60e51b815260206004820152601d60248201527f416464726573733a2063616c6c20746f206e6f6e2d636f6e74726163740000006044820152606401610a5c565b50816125be565b6125be83836125c6565b949350505050565b8151156125d65781518083602001fd5b8060405162461bcd60e51b8152600401610a5c9190613412565b60006020828403121561260257600080fd5b81356001600160e01b03198116811461193f57600080fd5b600060c0828403121561262c57600080fd5b50919050565b600060c0828403121561264457600080fd5b61193f838361261a565b6001600160a01b0381168114610e0157600080fd5b6000806040838503121561267657600080fd5b8235915060208301356126888161264e565b809150509250929050565b6000602082840312156126a557600080fd5b5035919050565b600080600080600061014086880312156126c557600080fd5b85356126d08161264e565b94506126df876020880161261a565b935060e08601356126ef8161264e565b92506101008601356127008161264e565b91506101208601356127118161264e565b809150509295509295909350565b60006020828403121561273157600080fd5b813561193f8161264e565b602081016003831061275e57634e487b7160e01b600052602160045260246000fd5b91905290565b634e487b7160e01b600052604160045260246000fd5b604051601f8201601f191681016001600160401b03811182821017156127a2576127a2612764565b604052919050565b60006001600160401b038211156127c3576127c3612764565b50601f01601f191660200190565b600080604083850312156127e457600080fd5b82356127ef8161264e565b915060208301356001600160401b0381111561280a57600080fd5b8301601f8101851361281b57600080fd5b803561282e612829826127aa565b61277a565b81815286602083850101111561284357600080fd5b816020840160208301376000602083830101528093505050509250929050565b60008083601f84011261287557600080fd5b5081356001600160401b0381111561288c57600080fd5b6020830191508360208260051b85010111156128a757600080fd5b9250929050565b6001600160401b0381168114610e0157600080fd5b80356128ce816128ae565b919050565b600080600080600080608087890312156128ec57600080fd5b86356001600160401b038082111561290357600080fd5b818901915089601f83011261291757600080fd5b81358181111561292657600080fd5b8a602082850101111561293857600080fd5b60209283019850965090880135908082111561295357600080fd5b5061296089828a01612863565b90955093505060408701359150612979606088016128c3565b90509295509295509295565b60005b838110156129a0578181015183820152602001612988565b50506000910152565b600081518084526129c1816020860160208601612985565b601f01601f19169290920160200192915050565b600081518084526020808501808196508360051b8101915082860160005b85811015612a46578284038952815180516001600160a01b031685528581015186860152604090810151606091860182905290612a32818701836129a9565b9a87019a95505050908401906001016129f3565b5091979650505050505050565b6000610140891515835288151560208401526001600160401b038089511660408501528060208a01511660608501525063ffffffff60408901511660808401526060880151151560a08401528660c08401528060e0840152612ab7818401876129a9565b9050828103610100840152612acc81866129d5565b9150508261012083015298975050505050505050565b8015158114610e0157600080fd5b60008060408385031215612b0357600080fd5b82359150602083013561268881612ae2565b600060208284031215612b2757600080fd5b815161193f81612ae2565b60008060008060808587031215612b4857600080fd5b8451612b53816128ae565b8094505060208501519250604085015191506060850151612b73816128ae565b939692955090935050565b634e487b7160e01b600052601160045260246000fd5b6001600160401b0381811683821601908082111561200957612009612b7e565b600060208284031215612bc657600080fd5b5051919050565b808201808211156108bd576108bd612b7e565b6020808252602c908201527f46756e6374696f6e206d7573742062652063616c6c6564207468726f7567682060408201526b19195b1959d85d1958d85b1b60a21b606082015260800190565b6020808252602c908201527f46756e6374696f6e206d7573742062652063616c6c6564207468726f7567682060408201526b6163746976652070726f787960a01b606082015260800190565b818103818111156108bd576108bd612b7e565b600181811c90821680612c9f57607f821691505b60208210810361262c57634e487b7160e01b600052602260045260246000fd5b601f821115611ad757600081815260208120601f850160051c81016020861015612ce65750805b601f850160051c820191505b81811015610d3457828155600101612cf2565b6001600160401b03831115612d1c57612d1c612764565b612d3083612d2a8354612c8b565b83612cbf565b6000601f841160018114612d645760008515612d4c5750838201355b600019600387901b1c1916600186901b178355612dbe565b600083815260209020601f19861690835b82811015612d955786850135825560209485019460019092019101612d75565b5086821015612db25760001960f88860031b161c19848701351681555b505060018560011b0183555b5050505050565b634e487b7160e01b600052603260045260246000fd5b60008235605e19833603018112612df157600080fd5b9190910192915050565b8135612e068161264e565b81546001600160a01b0319166001600160a01b03919091161781556020828101356001838101919091559060028301604085013536869003601e19018112612e4d57600080fd5b850180356001600160401b03811115612e6557600080fd5b8036038483011315612e7657600080fd5b612e8a81612e848554612c8b565b85612cbf565b6000601f821160018114612ec05760008315612ea857508382018601355b600019600385901b1c1916600184901b178555612f19565b600085815260209020601f19841690835b82811015612ef057868501890135825593880193908901908801612ed1565b5084821015612f0f5760001960f88660031b161c198885880101351681555b50508683881b0185555b505050505050505050565b81835281816020850137506000828201602090810191909152601f909101601f19169091010190565b6001600160a01b0386811682528516602082015260408101849052608060608201819052600090612f819083018486612f24565b979650505050505050565b63ffffffff81168114610e0157600080fd5b600060208284031215612fb057600080fd5b813561193f81612f8c565b600081356108bd81612f8c565b600081356108bd81612ae2565b8135612fe081612f8c565b63ffffffff8116905081548163ffffffff198216178355602084013561300581612f8c565b67ffffffff000000008160201b16905080836001600160401b0319841617178455604085013561303481612f8c565b6bffffffff00000000000000008160401b16846bffffffffffffffffffffffff19851617831717855550505050606082013561306f81612f8c565b815463ffffffff60601b1916606082901b63ffffffff60601b16178255506130c061309c60808401612fbb565b82805463ffffffff60801b191660809290921b63ffffffff60801b16919091179055565b61090a6130cf60a08401612fc8565b82805460ff60a01b191691151560a01b60ff60a01b16919091179055565b6000602082840312156130ff57600080fd5b813561193f81612ae2565b6020808252602b908201527f496e697469616c697a61626c653a20636f6e7472616374206973206e6f74206960408201526a6e697469616c697a696e6760a81b606082015260800190565b80820281158282048414176108bd576108bd612b7e565b634e487b7160e01b600052601260045260246000fd5b6000826131915761319161316c565b500690565b6000826131a5576131a561316c565b500490565b6000600182016131bc576131bc612b7e565b5060010190565b60006001600160401b03808a1683526020818a1681850152604060a0818601526131f160a086018a8c612f24565b606086820381880152818983528483019050848a60051b8401018b60005b8c8110156132b457858303601f190184528135368f9003605e1901811261323557600080fd5b8e0180356132428161264e565b6001600160a01b0316845280890135898501528781013536829003601e1901811261326c57600080fd5b0188810190358a81111561327f57600080fd5b80360382131561328e57600080fd5b86898601526132a08786018284612f24565b958a0195945050509087019060010161320f565b50508097505050505050505082608083015298975050505050505050565b8381526060602082015260006132eb60608301856129d5565b9050826040830152949350505050565b600080604080848603121561330f57600080fd5b83516001600160401b038082111561332657600080fd5b818601915086601f83011261333a57600080fd5b815160208282111561334e5761334e612764565b8160051b61335d82820161277a565b928352848101820192828101908b85111561337757600080fd5b83870192505b848310156133ec578251868111156133955760008081fd5b8701603f81018d136133a75760008081fd5b848101516133b7612829826127aa565b8181528e8b8385010111156133cc5760008081fd5b6133db828883018d8601612985565b84525050918301919083019061337d565b9990920151989a9899505050505050505050565b60008251612df1818460208701612985565b60208152600061193f60208301846129a956fe360894a13ba1a3210667c828492db98dca3e2076cc3735a920a3ca505d382bbc416464726573733a206c6f772d6c6576656c2064656c65676174652063616c6c206661696c6564a2646970667358221220e0c9fc3a4e7a0329476b98b81e99f6e88a85b60717768e9b00a5c2afd85372d464736f6c63430008110033","linkReferences":{}},"methodIdentifiers":{"PROPOSER_PERMISSION_ID()":"e6944e16","UPDATE_OPTIMISTIC_GOVERNANCE_SETTINGS_PERMISSION_ID()":"2d5cd31e","UPGRADE_PLUGIN_PERMISSION_ID()":"c9c4bfca","bridgedVotingPower(uint256)":"560d58b0","canExecute(uint256)":"cc63604a","canVeto(uint256,address)":"15e0ffdd","createProposal(bytes,(address,uint256,bytes)[],uint256,uint64)":"ab0366e3","dao()":"4162169f","effectiveVotingPower(uint256,bool)":"dd9a7736","execute(uint256)":"fe0d94c1","getProposal(uint256)":"c7f758a8","governanceSettings()":"62354e03","hasVetoed(uint256,address)":"579baff6","implementation()":"5c60da1b","initialize(address,(uint32,uint32,uint32,uint32,uint32,bool),address,address,address)":"2fa59f09","isL2Available()":"01db9ca1","isMember(address)":"a230c524","isMinVetoRatioReached(uint256)":"40a4d6fe","minVetoRatio()":"856796f9","parseProposalId(uint256)":"6659a091","pluginType()":"41de6830","proposalCount()":"da35c664","proposalIds(uint256)":"9b644a23","proxiableUUID()":"52d1902d","supportsInterface(bytes4)":"01ffc9a7","taikoBridge()":"52b8f191","taikoL1()":"10100713","totalVotingPower(uint256)":"536f9f42","updateOptimisticGovernanceSettings((uint32,uint32,uint32,uint32,uint32,bool))":"10b94c64","upgradeTo(address)":"3659cfe6","upgradeToAndCall(address,bytes)":"4f1ef286","veto(uint256)":"1d28dec7","votingToken()":"b0340123"},"id":157}