{"abi":[{"type":"constructor","inputs":[],"stateMutability":"nonpayable"},{"type":"function","name":"UPDATE_MULTISIG_SETTINGS_PERMISSION_ID","inputs":[],"outputs":[{"name":"","type":"bytes32","internalType":"bytes32"}],"stateMutability":"view"},{"type":"function","name":"UPGRADE_PLUGIN_PERMISSION_ID","inputs":[],"outputs":[{"name":"","type":"bytes32","internalType":"bytes32"}],"stateMutability":"view"},{"type":"function","name":"approve","inputs":[{"name":"_proposalId","type":"uint256","internalType":"uint256"}],"outputs":[],"stateMutability":"nonpayable"},{"type":"function","name":"canApprove","inputs":[{"name":"_proposalId","type":"uint256","internalType":"uint256"},{"name":"_account","type":"address","internalType":"address"}],"outputs":[{"name":"","type":"bool","internalType":"bool"}],"stateMutability":"view"},{"type":"function","name":"canExecute","inputs":[{"name":"_proposalId","type":"uint256","internalType":"uint256"}],"outputs":[{"name":"","type":"bool","internalType":"bool"}],"stateMutability":"view"},{"type":"function","name":"createProposal","inputs":[{"name":"_encryptedPayloadURI","type":"bytes","internalType":"bytes"},{"name":"_publicMetadataUriHash","type":"bytes32","internalType":"bytes32"},{"name":"_destinationActionsHash","type":"bytes32","internalType":"bytes32"},{"name":"_destinationPlugin","type":"address","internalType":"contract OptimisticTokenVotingPlugin"},{"name":"_approveProposal","type":"bool","internalType":"bool"}],"outputs":[{"name":"proposalId","type":"uint256","internalType":"uint256"}],"stateMutability":"nonpayable"},{"type":"function","name":"dao","inputs":[],"outputs":[{"name":"","type":"address","internalType":"contract IDAO"}],"stateMutability":"view"},{"type":"function","name":"execute","inputs":[{"name":"_proposalId","type":"uint256","internalType":"uint256"},{"name":"_metadataUri","type":"bytes","internalType":"bytes"},{"name":"_actions","type":"tuple[]","internalType":"struct IDAO.Action[]","components":[{"name":"to","type":"address","internalType":"address"},{"name":"value","type":"uint256","internalType":"uint256"},{"name":"data","type":"bytes","internalType":"bytes"}]}],"outputs":[],"stateMutability":"nonpayable"},{"type":"function","name":"getProposal","inputs":[{"name":"_proposalId","type":"uint256","internalType":"uint256"}],"outputs":[{"name":"executed","type":"bool","internalType":"bool"},{"name":"approvals","type":"uint16","internalType":"uint16"},{"name":"parameters","type":"tuple","internalType":"struct EmergencyMultisig.ProposalParameters","components":[{"name":"minApprovals","type":"uint16","internalType":"uint16"},{"name":"snapshotBlock","type":"uint64","internalType":"uint64"},{"name":"expirationDate","type":"uint64","internalType":"uint64"}]},{"name":"encryptedPayloadURI","type":"bytes","internalType":"bytes"},{"name":"publicMetadataUriHash","type":"bytes32","internalType":"bytes32"},{"name":"destinationActionsHash","type":"bytes32","internalType":"bytes32"},{"name":"destinationPlugin","type":"address","internalType":"contract OptimisticTokenVotingPlugin"}],"stateMutability":"view"},{"type":"function","name":"hasApproved","inputs":[{"name":"_proposalId","type":"uint256","internalType":"uint256"},{"name":"_account","type":"address","internalType":"address"}],"outputs":[{"name":"","type":"bool","internalType":"bool"}],"stateMutability":"view"},{"type":"function","name":"hashActions","inputs":[{"name":"_actions","type":"tuple[]","internalType":"struct IDAO.Action[]","components":[{"name":"to","type":"address","internalType":"address"},{"name":"value","type":"uint256","internalType":"uint256"},{"name":"data","type":"bytes","internalType":"bytes"}]}],"outputs":[{"name":"actionsHash","type":"bytes32","internalType":"bytes32"}],"stateMutability":"pure"},{"type":"function","name":"implementation","inputs":[],"outputs":[{"name":"","type":"address","internalType":"address"}],"stateMutability":"view"},{"type":"function","name":"initialize","inputs":[{"name":"_dao","type":"address","internalType":"contract IDAO"},{"name":"_multisigSettings","type":"tuple","internalType":"struct EmergencyMultisig.MultisigSettings","components":[{"name":"onlyListed","type":"bool","internalType":"bool"},{"name":"minApprovals","type":"uint16","internalType":"uint16"},{"name":"signerList","type":"address","internalType":"contract SignerList"},{"name":"proposalExpirationPeriod","type":"uint32","internalType":"uint32"}]}],"outputs":[],"stateMutability":"nonpayable"},{"type":"function","name":"lastMultisigSettingsChange","inputs":[],"outputs":[{"name":"","type":"uint64","internalType":"uint64"}],"stateMutability":"view"},{"type":"function","name":"multisigSettings","inputs":[],"outputs":[{"name":"onlyListed","type":"bool","internalType":"bool"},{"name":"minApprovals","type":"uint16","internalType":"uint16"},{"name":"signerList","type":"address","internalType":"contract SignerList"},{"name":"proposalExpirationPeriod","type":"uint32","internalType":"uint32"}],"stateMutability":"view"},{"type":"function","name":"pluginType","inputs":[],"outputs":[{"name":"","type":"uint8","internalType":"enum IPlugin.PluginType"}],"stateMutability":"pure"},{"type":"function","name":"proposalCount","inputs":[],"outputs":[{"name":"","type":"uint256","internalType":"uint256"}],"stateMutability":"view"},{"type":"function","name":"proxiableUUID","inputs":[],"outputs":[{"name":"","type":"bytes32","internalType":"bytes32"}],"stateMutability":"view"},{"type":"function","name":"supportsInterface","inputs":[{"name":"_interfaceId","type":"bytes4","internalType":"bytes4"}],"outputs":[{"name":"","type":"bool","internalType":"bool"}],"stateMutability":"view"},{"type":"function","name":"updateMultisigSettings","inputs":[{"name":"_multisigSettings","type":"tuple","internalType":"struct EmergencyMultisig.MultisigSettings","components":[{"name":"onlyListed","type":"bool","internalType":"bool"},{"name":"minApprovals","type":"uint16","internalType":"uint16"},{"name":"signerList","type":"address","internalType":"contract SignerList"},{"name":"proposalExpirationPeriod","type":"uint32","internalType":"uint32"}]}],"outputs":[],"stateMutability":"nonpayable"},{"type":"function","name":"upgradeTo","inputs":[{"name":"newImplementation","type":"address","internalType":"address"}],"outputs":[],"stateMutability":"nonpayable"},{"type":"function","name":"upgradeToAndCall","inputs":[{"name":"newImplementation","type":"address","internalType":"address"},{"name":"data","type":"bytes","internalType":"bytes"}],"outputs":[],"stateMutability":"payable"},{"type":"event","name":"AdminChanged","inputs":[{"name":"previousAdmin","type":"address","indexed":false,"internalType":"address"},{"name":"newAdmin","type":"address","indexed":false,"internalType":"address"}],"anonymous":false},{"type":"event","name":"Approved","inputs":[{"name":"proposalId","type":"uint256","indexed":true,"internalType":"uint256"},{"name":"approver","type":"address","indexed":true,"internalType":"address"}],"anonymous":false},{"type":"event","name":"BeaconUpgraded","inputs":[{"name":"beacon","type":"address","indexed":true,"internalType":"address"}],"anonymous":false},{"type":"event","name":"EmergencyProposalCreated","inputs":[{"name":"proposalId","type":"uint256","indexed":true,"internalType":"uint256"},{"name":"creator","type":"address","indexed":true,"internalType":"address"},{"name":"encryptedPayloadURI","type":"bytes","indexed":false,"internalType":"bytes"}],"anonymous":false},{"type":"event","name":"Executed","inputs":[{"name":"proposalId","type":"uint256","indexed":true,"internalType":"uint256"}],"anonymous":false},{"type":"event","name":"Initialized","inputs":[{"name":"version","type":"uint8","indexed":false,"internalType":"uint8"}],"anonymous":false},{"type":"event","name":"MultisigSettingsUpdated","inputs":[{"name":"onlyListed","type":"bool","indexed":false,"internalType":"bool"},{"name":"minApprovals","type":"uint16","indexed":true,"internalType":"uint16"},{"name":"signerList","type":"address","indexed":false,"internalType":"contract SignerList"},{"name":"proposalExpirationPeriod","type":"uint32","indexed":false,"internalType":"uint32"}],"anonymous":false},{"type":"event","name":"ProposalCreated","inputs":[{"name":"proposalId","type":"uint256","indexed":true,"internalType":"uint256"},{"name":"creator","type":"address","indexed":true,"internalType":"address"},{"name":"startDate","type":"uint64","indexed":false,"internalType":"uint64"},{"name":"endDate","type":"uint64","indexed":false,"internalType":"uint64"},{"name":"metadata","type":"bytes","indexed":false,"internalType":"bytes"},{"name":"actions","type":"tuple[]","indexed":false,"internalType":"struct IDAO.Action[]","components":[{"name":"to","type":"address","internalType":"address"},{"name":"value","type":"uint256","internalType":"uint256"},{"name":"data","type":"bytes","internalType":"bytes"}]},{"name":"allowFailureMap","type":"uint256","indexed":false,"internalType":"uint256"}],"anonymous":false},{"type":"event","name":"ProposalExecuted","inputs":[{"name":"proposalId","type":"uint256","indexed":true,"internalType":"uint256"}],"anonymous":false},{"type":"event","name":"Upgraded","inputs":[{"name":"implementation","type":"address","indexed":true,"internalType":"address"}],"anonymous":false},{"type":"error","name":"ApprovalCastForbidden","inputs":[{"name":"proposalId","type":"uint256","internalType":"uint256"},{"name":"sender","type":"address","internalType":"address"}]},{"type":"error","name":"DaoUnauthorized","inputs":[{"name":"dao","type":"address","internalType":"address"},{"name":"where","type":"address","internalType":"address"},{"name":"who","type":"address","internalType":"address"},{"name":"permissionId","type":"bytes32","internalType":"bytes32"}]},{"type":"error","name":"InvalidActions","inputs":[{"name":"proposalId","type":"uint256","internalType":"uint256"}]},{"type":"error","name":"InvalidMetadataUri","inputs":[{"name":"proposalId","type":"uint256","internalType":"uint256"}]},{"type":"error","name":"InvalidSignerList","inputs":[{"name":"signerList","type":"address","internalType":"contract SignerList"}]},{"type":"error","name":"MinApprovalsOutOfBounds","inputs":[{"name":"limit","type":"uint16","internalType":"uint16"},{"name":"actual","type":"uint16","internalType":"uint16"}]},{"type":"error","name":"ProposalCreationForbidden","inputs":[{"name":"sender","type":"address","internalType":"address"}]},{"type":"error","name":"ProposalExecutionForbidden","inputs":[{"name":"proposalId","type":"uint256","internalType":"uint256"}]}],"bytecode":{"object":"0x60a0604052306080523480156200001557600080fd5b506200002062000030565b6200002a62000030565b620000f1565b600054610100900460ff16156200009d5760405162461bcd60e51b815260206004820152602760248201527f496e697469616c697a61626c653a20636f6e747261637420697320696e697469604482015266616c697a696e6760c81b606482015260840160405180910390fd5b60005460ff90811614620000ef576000805460ff191660ff9081179091556040519081527f7f26b83ff96e1f2b6a682f133852f6798a09c465da95921460cefb38474024989060200160405180910390a15b565b60805161259062000129600039600081816106030152818161064c015281816107f1015281816108310152610bae01526125906000f3fe6080604052600436106101355760003560e01c806351df91a2116100ab578063bc2083021161006f578063bc2083021461035e578063c7f758a814610397578063c9c4bfca146103ca578063cc63604a146103fe578063da35c6641461041e578063e097b3ff1461043357600080fd5b806351df91a2146102d457806352d1902d146102f45780635c60da1b146103095780637dacfc001461031e578063b759f9541461033e57600080fd5b80633659cfe6116100fd5780633659cfe61461021157806339a04ea0146102335780634162169f1461025357806341de6830146102855780634f1ef286146102a15780634f6ed700146102b457600080fd5b806301ffc9a71461013a57806319dd12281461016f5780632358d5a81461019d57806329245f56146101bd5780632caf024b146101dd575b600080fd5b34801561014657600080fd5b5061015a610155366004611a94565b6104b1565b60405190151581526020015b60405180910390f35b34801561017b57600080fd5b5061018f61018a366004611b09565b6104dc565b604051908152602001610166565b3480156101a957600080fd5b5061015a6101b8366004611b5f565b61050f565b3480156101c957600080fd5b5061015a6101d8366004611b5f565b6105e6565b3480156101e957600080fd5b5061018f7fb1750e46d35a0069c8465b8643e7838d2149a842a2db8ee233d9835590040cad81565b34801561021d57600080fd5b5061023161022c366004611b8f565b6105f9565b005b34801561023f57600080fd5b5061023161024e366004611bc4565b6106ca565b34801561025f57600080fd5b5060c9546001600160a01b03165b6040516001600160a01b039091168152602001610166565b34801561029157600080fd5b5060006040516101669190611bfa565b6102316102af366004611cc4565b6107e7565b3480156102c057600080fd5b506102316102cf366004611d13565b6108a0565b3480156102e057600080fd5b5061018f6102ef366004611d90565b61095a565b34801561030057600080fd5b5061018f610ba1565b34801561031557600080fd5b5061026d610c55565b34801561032a57600080fd5b50610231610339366004611e37565b610c64565b34801561034a57600080fd5b50610231610359366004611e53565b610cab565b34801561036a57600080fd5b506101615461037f906001600160401b031681565b6040516001600160401b039091168152602001610166565b3480156103a357600080fd5b506103b76103b2366004611e53565b610dfd565b6040516101669796959493929190611ebc565b3480156103d657600080fd5b5061018f7f821b6e3a557148015a918c89e5d092e878a69854a2d1a410635f771bd5a8a3f581565b34801561040a57600080fd5b5061015a610419366004611e53565b610f36565b34801561042a57600080fd5b5061018f610f41565b34801561043f57600080fd5b50610160546104789060ff811690610100810461ffff1690630100000081046001600160a01b031690600160b81b900463ffffffff1684565b60408051941515855261ffff90931660208501526001600160a01b039091169183019190915263ffffffff166060820152608001610166565b60006001600160e01b031982166301f1462760e51b14806104d657506104d682610f4d565b92915050565b600082826040516020016104f192919061203a565b60405160208183030381529060405280519060200120905092915050565b600082815261015f60205260408082206101605460018201549251632568243b60e11b81526001600160a01b038681166004830152620100009094046001600160401b031660248201529192849263010000009092041690634ad0487690604401602060405180830381865afa15801561058d573d6000803e3d6000fd5b505050506040513d601f19601f820116820180604052508101906105b1919061204e565b600086815261015f602090815260408083206001600160a01b03909416835260029093019052205460ff169250505092915050565b60006105f28383610f72565b9392505050565b6001600160a01b037f000000000000000000000000000000000000000000000000000000000000000016300361064a5760405162461bcd60e51b81526004016106419061206b565b60405180910390fd5b7f00000000000000000000000000000000000000000000000000000000000000006001600160a01b031661067c6110be565b6001600160a01b0316146106a25760405162461bcd60e51b8152600401610641906120b7565b6106ab816110da565b604080516000808252602082019092526106c791839190611113565b50565b600054610100900460ff16158080156106ea5750600054600160ff909116105b806107045750303b158015610704575060005460ff166001145b6107675760405162461bcd60e51b815260206004820152602e60248201527f496e697469616c697a61626c653a20636f6e747261637420697320616c72656160448201526d191e481a5b9a5d1a585b1a5e995960921b6064820152608401610641565b6000805460ff19166001179055801561078a576000805461ff0019166101001790555b6107938361127e565b61079c826112ae565b80156107e2576000805461ff0019169055604051600181527f7f26b83ff96e1f2b6a682f133852f6798a09c465da95921460cefb38474024989060200160405180910390a15b505050565b6001600160a01b037f000000000000000000000000000000000000000000000000000000000000000016300361082f5760405162461bcd60e51b81526004016106419061206b565b7f00000000000000000000000000000000000000000000000000000000000000006001600160a01b03166108616110be565b6001600160a01b0316146108875760405162461bcd60e51b8152600401610641906120b7565b610890826110da565b61089c82826001611113565b5050565b6108a984611531565b6108c957604051639fefd0f160e01b815260048101859052602401610641565b828051906020012061015f6000868152602001908152602001600020600401541461090a57604051632e430b7560e01b815260048101859052602401610641565b61091482826104dc565b600085815261015f60205260409020600501541461094857604051636d5f114160e01b815260048101859052602401610641565b61095484848484611574565b50505050565b6101605460009060ff1615610a0257610160546040516313b5f72960e01b8152336004820152600091630100000090046001600160a01b0316906313b5f72990602401602060405180830381865afa1580156109ba573d6000803e3d6000fd5b505050506040513d601f19601f820116820180604052508101906109de9190612103565b905080610a0057604051633aae64d160e21b8152336004820152602401610641565b505b60006001610a0f4361163f565b6101615491900391506001600160401b0380831691161115610a4657604051633aae64d160e21b8152336004820152602401610641565b610a4e6116ab565b600081815261015f6020526040902090925060038101610a6f898b8361219a565b506006810180546001600160a01b0319166001600160a01b03871617905560018101805469ffffffffffffffff00001916620100006001600160401b0385160217905561016054600160b81b900463ffffffff16610acc4261163f565b610ad6919061225a565b6001820180546001600160401b0392909216600160501b0267ffffffffffffffff60501b198316811782556101605461ffff1990911671ffffffffffffffff0000000000000000ffff199093169290921761ffff610100909304929092169190911790556004810187905560058101869055604051339084907f4f008982fac409c12ce974364d6fd9f87200ed6f9d0dd80b8b9a132b29c3420c90610b7e908d908d9061228f565b60405180910390a38315610b9557610b9583610cab565b50509695505050505050565b6000306001600160a01b037f00000000000000000000000000000000000000000000000000000000000000001614610c415760405162461bcd60e51b815260206004820152603860248201527f555550535570677261646561626c653a206d757374206e6f742062652063616c60448201527f6c6564207468726f7567682064656c656761746563616c6c00000000000000006064820152608401610641565b506000805160206125148339815191525b90565b6000610c5f6110be565b905090565b60c9547fb1750e46d35a0069c8465b8643e7838d2149a842a2db8ee233d9835590040cad90610ca2906001600160a01b031630335b846000366116c6565b61089c826112ae565b33610cb68282610f72565b610ce557604051631bf6d43960e11b8152600481018390526001600160a01b0382166024820152604401610641565b600082815261015f6020526040808220805462ffff0019811660016101009283900461ffff90811682011690920217825561016054908201549251632568243b60e11b81526001600160a01b038681166004830152620100009094046001600160401b0316602482015291939263010000009091041690634ad0487690604401602060405180830381865afa158015610d82573d6000803e3d6000fd5b505050506040513d601f19601f82011682018060405250810190610da6919061204e565b6001600160a01b0381166000818152600285016020526040808220805460ff1916600117905551929350909186917f7b39c92a7e1a86e846edaeff6eba715a046352c596794c2a374269c126a9976891a350505050565b60408051606080820183526000808352602080840182905292840181905284815261015f8352838120805485518085018752600183015461ffff80821683526001600160401b03620100008304811698840198909852600160501b9091049096169681019690965260038201805460ff83169761010090930490961695919493928392839290610e8c90612120565b80601f0160208091040260200160405190810160405280929190818152602001828054610eb890612120565b8015610f055780601f10610eda57610100808354040283529160200191610f05565b820191906000526020600020905b815481529060010190602001808311610ee857829003601f168201915b50505050600483015460058401546006909401549a9c999b5097999198929650506001600160a01b03169350915050565b60006104d682611531565b6000610c5f61012d5490565b60006001600160e01b0319821663368d719960e21b14806104d657506104d68261177a565b600082815261015f60205260408120610f8a816117ca565b610f985760009150506104d6565b6101605460018201546040516302f9650f60e01b81526001600160a01b038681166004830152620100009092046001600160401b031660248201526000928392630100000090910416906302f9650f906044016040805180830381865afa158015611007573d6000803e3d6000fd5b505050506040513d601f19601f8201168201806040525081019061102b91906122a3565b90925090506001600160a01b038216158061104d57506001600160a01b038116155b1561105e57600093505050506104d6565b806001600160a01b0316856001600160a01b03161461108357600093505050506104d6565b6001600160a01b038216600090815260028401602052604090205460ff16156110b257600093505050506104d6565b50600195945050505050565b600080516020612514833981519152546001600160a01b031690565b60c9547f821b6e3a557148015a918c89e5d092e878a69854a2d1a410635f771bd5a8a3f59061089c906001600160a01b03163033610c99565b7f4910fdfa16fed3260ed0e7147f7cc6da11a60208b5b9406d12a635614ffd91435460ff1615611146576107e283611807565b826001600160a01b03166352d1902d6040518163ffffffff1660e01b8152600401602060405180830381865afa9250505080156111a0575060408051601f3d908101601f1916820190925261119d918101906122d2565b60015b6112035760405162461bcd60e51b815260206004820152602e60248201527f45524331393637557067726164653a206e657720696d706c656d656e7461746960448201526d6f6e206973206e6f74205555505360901b6064820152608401610641565b60008051602061251483398151915281146112725760405162461bcd60e51b815260206004820152602960248201527f45524331393637557067726164653a20756e737570706f727465642070726f786044820152681a58589b195555525160ba1b6064820152608401610641565b506107e28383836118a3565b600054610100900460ff166112a55760405162461bcd60e51b8152600401610641906122eb565b6106c7816118c8565b6112be6060820160408301611b8f565b6040516301ffc9a760e01b81526214a6cd60e31b60048201526001600160a01b0391909116906301ffc9a790602401602060405180830381865afa15801561130a573d6000803e3d6000fd5b505050506040513d601f19601f8201168201806040525081019061132e9190612103565b611367576113426060820160408301611b8f565b604051631da756bb60e01b81526001600160a01b039091166004820152602401610641565b60006113796060830160408401611b8f565b6001600160a01b03166327f1608d6040518163ffffffff1660e01b8152600401602060405180830381865afa1580156113b6573d6000803e3d6000fd5b505050506040513d601f19601f820116820180604052508101906113da91906122d2565b905061ffff81166113f16040840160208501612346565b61ffff161115611433578061140c6040840160208501612346565b6040516317b10ead60e11b815261ffff928316600482015291166024820152604401610641565b60016114456040840160208501612346565b61ffff16101561146157600161140c6040840160208501612346565b8161016061146f8282612375565b90505061147b4361163f565b610161805467ffffffffffffffff19166001600160401b03929092169190911790556114ad6040830160208401612346565b61ffff167f1c667e7c865f15bab8946ee52cc7a685bce6cfd1b7fc22f32062fc8e97c8a0f26114df6020850185612423565b6114ef6060860160408701611b8f565b6114ff6080870160608801612440565b6040805193151584526001600160a01b03909216602084015263ffffffff169082015260600160405180910390a25050565b600081815261015f60205260408120611549816117ca565b6115565750600092915050565b6001810154905461ffff918216610100909104909116101592915050565b600084815261015f6020526040808220805460ff191660011781559051909186917fbcf6a68a2f901be4a23a41b53acd7697893a7e34def4e28acba584da75283b679190a2600681015460405163ab0366e360e01b81526001600160a01b039091169063ab0366e3906115f490879087908790600090819060040161245d565b6020604051808303816000875af1158015611613573d6000803e3d6000fd5b505050506040513d601f19601f8201168201806040525081019061163791906122d2565b505050505050565b60006001600160401b038211156116a75760405162461bcd60e51b815260206004820152602660248201527f53616665436173743a2076616c756520646f65736e27742066697420696e203660448201526534206269747360d01b6064820152608401610641565b5090565b60006116b5610f41565b9050610c5261012d80546001019055565b604051637ef7c88360e11b81526001600160a01b0387169063fdef9106906116fa90889088908890889088906004016124a5565b602060405180830381865afa158015611717573d6000803e3d6000fd5b505050506040513d601f19601f8201168201806040525081019061173b9190612103565b61163757604051630cb6f8ed60e21b81526001600160a01b03808816600483015280871660248301528516604482015260648101849052608401610641565b60006001600160e01b0319821663041de68360e41b14806117ab57506001600160e01b031982166352d1902d60e01b145b806104d657506301ffc9a760e01b6001600160e01b03198316146104d6565b6000806117d64261163f565b835490915060ff161580156105f2575060018301546001600160401b03808316600160501b90920416119392505050565b6001600160a01b0381163b6118745760405162461bcd60e51b815260206004820152602d60248201527f455243313936373a206e657720696d706c656d656e746174696f6e206973206e60448201526c1bdd08184818dbdb9d1c9858dd609a1b6064820152608401610641565b60008051602061251483398151915280546001600160a01b0319166001600160a01b0392909216919091179055565b6118ac83611911565b6000825111806118b95750805b156107e2576109548383611951565b600054610100900460ff166118ef5760405162461bcd60e51b8152600401610641906122eb565b60c980546001600160a01b0319166001600160a01b0392909216919091179055565b61191a81611807565b6040516001600160a01b038216907fbc7cd75a20ee27fd9adebab32041f755214dbc6bffa90cc0225b39da2e5c2d3b90600090a250565b60606105f28383604051806060016040528060278152602001612534602791396060600080856001600160a01b03168560405161198e91906124e4565b600060405180830381855af49150503d80600081146119c9576040519150601f19603f3d011682016040523d82523d6000602084013e6119ce565b606091505b50915091506119df868383876119e9565b9695505050505050565b60608315611a58578251600003611a51576001600160a01b0385163b611a515760405162461bcd60e51b815260206004820152601d60248201527f416464726573733a2063616c6c20746f206e6f6e2d636f6e74726163740000006044820152606401610641565b5081611a62565b611a628383611a6a565b949350505050565b815115611a7a5781518083602001fd5b8060405162461bcd60e51b81526004016106419190612500565b600060208284031215611aa657600080fd5b81356001600160e01b0319811681146105f257600080fd5b60008083601f840112611ad057600080fd5b5081356001600160401b03811115611ae757600080fd5b6020830191508360208260051b8501011115611b0257600080fd5b9250929050565b60008060208385031215611b1c57600080fd5b82356001600160401b03811115611b3257600080fd5b611b3e85828601611abe565b90969095509350505050565b6001600160a01b03811681146106c757600080fd5b60008060408385031215611b7257600080fd5b823591506020830135611b8481611b4a565b809150509250929050565b600060208284031215611ba157600080fd5b81356105f281611b4a565b600060808284031215611bbe57600080fd5b50919050565b60008060a08385031215611bd757600080fd5b8235611be281611b4a565b9150611bf18460208501611bac565b90509250929050565b6020810160038310611c1c57634e487b7160e01b600052602160045260246000fd5b91905290565b634e487b7160e01b600052604160045260246000fd5b600082601f830112611c4957600080fd5b81356001600160401b0380821115611c6357611c63611c22565b604051601f8301601f19908116603f01168101908282118183101715611c8b57611c8b611c22565b81604052838152866020858801011115611ca457600080fd5b836020870160208301376000602085830101528094505050505092915050565b60008060408385031215611cd757600080fd5b8235611ce281611b4a565b915060208301356001600160401b03811115611cfd57600080fd5b611d0985828601611c38565b9150509250929050565b60008060008060608587031215611d2957600080fd5b8435935060208501356001600160401b0380821115611d4757600080fd5b611d5388838901611c38565b94506040870135915080821115611d6957600080fd5b50611d7687828801611abe565b95989497509550505050565b80151581146106c757600080fd5b60008060008060008060a08789031215611da957600080fd5b86356001600160401b0380821115611dc057600080fd5b818901915089601f830112611dd457600080fd5b813581811115611de357600080fd5b8a6020828501011115611df557600080fd5b602092830198509650508701359350604087013592506060870135611e1981611b4a565b91506080870135611e2981611d82565b809150509295509295509295565b600060808284031215611e4957600080fd5b6105f28383611bac565b600060208284031215611e6557600080fd5b5035919050565b60005b83811015611e87578181015183820152602001611e6f565b50506000910152565b60008151808452611ea8816020860160208601611e6c565b601f01601f19169290920160200192915050565b6000610120891515835261ffff808a1660208501528089511660408501525060208801516001600160401b0380821660608601528060408b015116608086015250508060a0840152611f1081840188611e90565b60c0840196909652505060e08101929092526001600160a01b031661010090910152949350505050565b81835281816020850137506000828201602090810191909152601f909101601f19169091010190565b81835260006020808501808196508560051b810191508460005b8781101561202d5782840389528135605e19883603018112611f9e57600080fd5b870160608135611fad81611b4a565b6001600160a01b03168652818701358787015260408083013536849003601e19018112611fd957600080fd5b9092018781019290356001600160401b03811115611ff657600080fd5b80360384131561200557600080fd5b82828901526120178389018286611f3a565b9c89019c97505050928601925050600101611f7d565b5091979650505050505050565b602081526000611a62602083018486611f63565b60006020828403121561206057600080fd5b81516105f281611b4a565b6020808252602c908201527f46756e6374696f6e206d7573742062652063616c6c6564207468726f7567682060408201526b19195b1959d85d1958d85b1b60a21b606082015260800190565b6020808252602c908201527f46756e6374696f6e206d7573742062652063616c6c6564207468726f7567682060408201526b6163746976652070726f787960a01b606082015260800190565b60006020828403121561211557600080fd5b81516105f281611d82565b600181811c9082168061213457607f821691505b602082108103611bbe57634e487b7160e01b600052602260045260246000fd5b601f8211156107e257600081815260208120601f850160051c8101602086101561217b5750805b601f850160051c820191505b8181101561163757828155600101612187565b6001600160401b038311156121b1576121b1611c22565b6121c5836121bf8354612120565b83612154565b6000601f8411600181146121f957600085156121e15750838201355b600019600387901b1c1916600186901b178355612253565b600083815260209020601f19861690835b8281101561222a578685013582556020948501946001909201910161220a565b50868210156122475760001960f88860031b161c19848701351681555b505060018560011b0183555b5050505050565b6001600160401b0381811683821601908082111561228857634e487b7160e01b600052601160045260246000fd5b5092915050565b602081526000611a62602083018486611f3a565b600080604083850312156122b657600080fd5b82516122c181611b4a565b6020840151909250611b8481611b4a565b6000602082840312156122e457600080fd5b5051919050565b6020808252602b908201527f496e697469616c697a61626c653a20636f6e7472616374206973206e6f74206960408201526a6e697469616c697a696e6760a81b606082015260800190565b61ffff811681146106c757600080fd5b60006020828403121561235857600080fd5b81356105f281612336565b63ffffffff811681146106c757600080fd5b813561238081611d82565b815460ff19811691151560ff16918217835560208401356123a081612336565b62ffff008160081b169050808362ffffff1984161717845560408501356123c681611b4a565b6301000000600160b81b0360189190911b166001600160b81b03198316841782178117855560608601356123f981612363565b6001600160d81b031993909316909317179190911760b89190911b63ffffffff60b81b1617905550565b60006020828403121561243557600080fd5b81356105f281611d82565b60006020828403121561245257600080fd5b81356105f281612363565b6080815260006124706080830188611e90565b8281036020840152612483818789611f63565b9150508360408301526001600160401b03831660608301529695505050505050565b6001600160a01b03868116825285166020820152604081018490526080606082018190526000906124d99083018486611f3a565b979650505050505050565b600082516124f6818460208701611e6c565b9190910192915050565b6020815260006105f26020830184611e9056fe360894a13ba1a3210667c828492db98dca3e2076cc3735a920a3ca505d382bbc416464726573733a206c6f772d6c6576656c2064656c65676174652063616c6c206661696c6564a26469706673582212205206770801b66f55e9129d57739a877bdea1c02e96b82bb1067c3d96c74b2cff64736f6c63430008110033","linkReferences":{}},"methodIdentifiers":{"UPDATE_MULTISIG_SETTINGS_PERMISSION_ID()":"2caf024b","UPGRADE_PLUGIN_PERMISSION_ID()":"c9c4bfca","approve(uint256)":"b759f954","canApprove(uint256,address)":"29245f56","canExecute(uint256)":"cc63604a","createProposal(bytes,bytes32,bytes32,address,bool)":"51df91a2","dao()":"4162169f","execute(uint256,bytes,(address,uint256,bytes)[])":"4f6ed700","getProposal(uint256)":"c7f758a8","hasApproved(uint256,address)":"2358d5a8","hashActions((address,uint256,bytes)[])":"19dd1228","implementation()":"5c60da1b","initialize(address,(bool,uint16,address,uint32))":"39a04ea0","lastMultisigSettingsChange()":"bc208302","multisigSettings()":"e097b3ff","pluginType()":"41de6830","proposalCount()":"da35c664","proxiableUUID()":"52d1902d","supportsInterface(bytes4)":"01ffc9a7","updateMultisigSettings((bool,uint16,address,uint32))":"7dacfc00","upgradeTo(address)":"3659cfe6","upgradeToAndCall(address,bytes)":"4f1ef286"},"id":154}